:020000040800F2
:100000001804002001010008090100080B01000884
:100010000D0100080F010008110100080000000098
:1000200000000000000000000000000013010008B4
:100030001501000800000000170100081901000860
:100040001B0100081B0100081B0100081B01000820
:100050001B0100081B010008490100081B010008E2
:100060001B0100081B0100081B0100081B01000800
:100070001B0100081B0100081B0100081B010008F0
:100080001B0100081B0100081B0100081B010008E0
:100090001B0100081B0100081B0100081B010008D0
:1000A0001B0100081B0100081B0100081B010008C0
:1000B0001B0100081B0100086D0700081B01000858
:1000C0001B0100081B0100081B0100081B010008A0
:1000D0001B0100081B0100081B0100081B01000890
:1000E0001B0100081B0100081B010008DFF80CD0F1
:1000F00000F018F8004800474D0C000818040020D4
:100100000648804706480047FEE7FEE7FEE7FEE7B1
:10011000FEE7FEE7FEE7FEE7FEE7FEE70D07000865
:10012000ED000008064C074D06E0E06840F00103D2
:1001300094E8070098471034AC42F6D3FFF7DAFF93
:10014000980C0008B80C000810B5012000F024F845
:10015000A8B101210A4800F072F918B1002109483C
:1001600000F08BFB0121064800F069F920B9054831
:1001700000F066FB04490880012000F007F810BD7C
:10018000000C01400004004002000020014908600A
:100190007047000014040140014600200022074B74
:1001A0001B6803EA0102054B14331B680B4013B1B3
:1001B0000AB1012000E00020704700000004014067
:1001C000002123498279002A3AD00A46126803683E
:1001D0009A430B461A600A1D126803689A430B1D66
:1001E0001A60027911440A6803681A430A60184ABF
:1001F0000832126803689A43154B08331A601A1DB7
:10020000126803689A43124B0C331A604279102A21
:100210000ED11A1F126803681A430D4B08331A6077
:100220001A1D126803681A43094B0C331A600DE05B
:100230000749427911440A6803681A430A6005E0D5
:10024000027911440A6803689A430A607047000003
:10025000000401401FB50121022000F059F903A854
:1002600000F0FAF80121082000F062F94FF4004094
:10027000ADF80C0010208DF80F0003A9194800F00C
:1002800053F80120ADF80C0048208DF80F00022033
:100290008DF80E0003A9134800F046F80121084626
:1002A00000F046F906208DF8000000208DF80100CE
:1002B0008DF8020001208DF80300684600F0F0F888
:1002C0000021012000F010F8012001908DF80A00B3
:1002D00000208DF8080010208DF8090001A8FFF714
:1002E0006FFF1FBD000C014030B500228B071C0FB3
:1002F0000F2303FA04F20B4B8C1053F82430934372
:10030000084C8D1044F8253023468C1053F82430C7
:100310008C07240F00FA04F42343024C8D1044F898
:10032000253030BD080001402DE9F041024600258E
:100330000026002000230024002791F803C00CF0C1
:100340000F0591F803C00CF0100CBCF1000F03D0A6
:1003500091F802C04CEA050591F800C0BCF1000F0D
:1003600031D0146800202BE04FF0010C0CFA00F3A0
:10037000B1F800C00CEA03069E4220D183004FF082
:100380000F0C0CFA03F7BC4305FA03FC4CEA040417
:1003900091F803C0BCF1280F06D14FF0010C0CFA04
:1003A00000FCC2F814C00AE091F803C0BCF1480F89
:1003B00005D14FF0010C0CFA00FCC2F810C0401C33
:1003C0000828D1D31460B1F800C0BCF1FF0F34DDB0
:1003D000546800202EE000F1080C4FF0010808FAE4
:1003E0000CF3B1F800C00CEA03069E4221D1830051
:1003F0004FF00F0C0CFA03F7BC4305FA03FC4CEA70
:10040000040491F803C0BCF1280F05D100F1080CD9
:1004100008FA0CF8C2F8148091F803C0BCF1480F38
:1004200007D100F1080C4FF0010808FA0CF8C2F8E7
:100430001080401C0828CED35460BDE8F0810246ED
:10044000002093680B400BB1012000E000207047B2
:1004500041617047016170474FF6FF7101800221D1
:1004600081700421C1707047024909884B22B1FB99
:10047000F2F070470200002010B54FF40041074829
:10048000FFF7E8FF002400E0641CB4F5E44FFBDB59
:100490004FF400410148FFF7DBFF10BD000C0140A5
:1004A00070B5002100230F22C47804B3154C2468D2
:1004B00004F4E064C4F5E064210AC1F10403CA4015
:1004C000447804FA03F184781440214309010E4C66
:1004D0000678A155047804F01F050124AC40057886
:1004E0006D11AD0005F1E025C5F8004109E0047883
:1004F00004F01F050124AC40044D0678761145F840
:10050000264070BD0CED00E000E400E080E100E07A
:1005100029B1064AD2690243044BDA6104E0034A76
:10052000D2698243014BDA6170470000001002403B
:1005300029B1064A92690243044B9A6104E0034AD6
:1005400092698243014B9A6170470000001002409B
:1005500030B500210022002400232D4D6D6805F0E8
:100560000C0121B1042905D0082923D105E0294D2A
:10057000056022E0274D05601FE0254D6D6805F4FC
:100580007012234D6D6805F48034022505EB92420C
:100590001CB9214D554305600BE01D4D6D6805F4F8
:1005A00000351DB11C4D5543056002E0194D554302
:1005B000056002E0174D056000BF00BF144D6D6877
:1005C00005F0F0010909154D6B5C0568DD404560DB
:1005D0000F4D6D6805F4E061090A104D6B5C4568CC
:1005E000DD4085600A4D6D6805F46051C90A0B4D08
:1005F0006B5C4568DD40C560054D6D6805F44041A4
:10060000890B074D6B5CC568B5FBF3F5056130BD23
:100610000010024000127A0000093D000400002092
:100620001400002010B500F001F810BD0CB500203A
:10063000019000903348006840F4803031490860F0
:1006400000BF3048006800F4003000900198401C62
:100650000190009818B90198B0F5A06FF1D1294820
:10066000006800F4003010B10120009001E000208B
:1006700000900098012843D12348006840F0100002
:10068000214908600846006820F003000860084619
:10069000006840F0020008601A4840681949486044
:1006A0000846406848600846406840F480604860FA
:1006B0000846406820F47C1048600846406840F4D2
:1006C000E81048600846006840F08070086000BF8D
:1006D0000C48006800F000700028F9D00948406814
:1006E00020F00300074948600846406840F00200D7
:1006F000486000BF0348406800F00C000828F9D1AA
:100700000CBD0000001002400020024010B513484C
:10071000006840F00100114908600846406810492F
:1007200008400E494860084600680E4908400B49D9
:1007300008600846006820F4802008600846406889
:1007400020F4FE0048604FF41F008860FFF76AFF46
:100750004FF000600449086010BD00000010024026
:100760000000FFF8FFFFF6FE08ED00E010B50121E4
:10077000064800F068F840B1FFF77EFE012004490A
:1007800008700121014800F005F810BD0008004084
:1007900000000020CA430282704721B1028842F063
:1007A0000102028004E002884FF6FE731A400280C4
:1007B0007047000000B587B004A800F0B3F800202F
:1007C000ADF812004820ADF8100004A91A4800F056
:1007D00057F801211848FFF7E0FF01210420FFF737
:1007E00097FE01A800F09EF80020ADF806004FF437
:1007F000E150ADF8040041F28830ADF8080001A9DD
:100800000E4800F03DF8012211460C4800F02CF88B
:1008100001210A48FFF7C1FF1E208DF800000020CB
:100820008DF801008DF8020001208DF80300684664
:10083000FFF736FE07B000BD00040040000800408E
:100840000146888C704730B5024600200023002402
:10085000158A05EA0103958905EA010413B10CB173
:10086000012000E0002030BD1AB183890B43838151
:1008700002E083898B438381704781847047000045
:10088000002202881D4B98420ED01D4B98420BD07F
:10089000B0F1804F08D01B4B984205D01A4B9842BC
:1008A00002D01A4B984204D14FF68F731A404B88EE
:1008B0001A43174B984207D0164B984204D04FF674
:1008C000FF431A40CB881A4302808B8883850B88AC
:1008D00003850A4B98420BD0094B984208D00E4B27
:1008E000984205D00D4B984202D00D4B984201D151
:1008F0000B7A03860123838270470000002C01409D
:10090000003401400004004000080040000C00409A
:10091000001000400014004000400140004401402D
:10092000004801404FF6FF71818000210180C180A5
:10093000418001727047000000B585B0012144F28A
:100940000400FFF7F5FD4FF40070ADF8100018201B
:100950008DF8130002208DF8120004A91348FFF748
:10096000E3FC4FF48060ADF8100004208DF8130014
:1009700004A90E48FFF7D8FC4FF4E13000900020A6
:10098000ADF80400ADF80600ADF80800ADF80C00B5
:100990000C20ADF80A006946054800F0A7F80121CF
:1009A000034800F08AF805B000BD000000080140CF
:1009B000003801400FB470B586B006460CA801900F
:1009C00073E00B9800785C281CD10B98401C0B90AE
:1009D00000786E2809D072280FD10D21304600F022
:1009E000F1F80B98401C0B900BE00A21304600F008
:1009F000E9F80B98401C0B9003E00B98401C0B90FF
:100A000000BF4BE00B980078252840D10B98401C84
:100A10000B900078642818D0732833D1019810C83F
:100A200001900BE02178304600F0CCF800BF402167
:100A3000304600F04EF80028F9D0641C20780028D9
:100A4000F0D10B98401C0B9020E0019820C8019039
:100A50000A2202A9284600F0C8F802AC0BE021786F
:100A6000304600F0AFF800BF4021304600F031F8CA
:100A70000028F9D0641C20780028F0D10B98401C85
:100A80000B9003E00B98401C0B9000BF06E00B9806
:100A900010F8011B0B90304600F094F800BF402185
:100AA000304600F016F80028F9D00B98007800289E
:100AB00087D106B070BC5DF814FB21B1828942F485
:100AC0000052828104E082894DF6FF731A408281D0
:100AD000704702460020B1F5007F00D100BF1388A7
:100AE0000B400BB1012000E0002070472DE9F047DA
:100AF00086B005460E460024A24600BFA146002748
:100B0000B08900B100BF2F462C8A4CF6FF7004401C
:100B1000F08804432C82AC894EF6F3100440B08870
:100B200031890843718908430443AC81AC8A4FF68C
:100B3000FF400440B0890443AC8201A8FFF708FDE0
:100B40001F48874202D1DDF810A001E0DDF80CA0BB
:100B5000A88900F4004040B10AEBCA0000EB0A107B
:100B600031684900B0FBF1F807E00AEBCA0000EB7E
:100B70000A1031688900B0FBF1F86420B8FBF0F08E
:100B800004012009642101FB1089A88900F40040B8
:100B900040B1322000EBC900B0FBF1F000F00700DB
:100BA000044308E0322000EB09106421B0FBF1F0AF
:100BB00000F00F0004432C8106B0BDE8F087000070
:100BC00000380140C1F308028280704702E008C883
:100BD000121F08C1002AFAD170477047002001E0B7
:100BE00001C1121F002AFBD17047F0B503460D4624
:100BF0001646002729460A2E03D0002008702846F2
:100C0000F0BD33B9302001F8010B002008702846F0
:100C1000F6E7002B03DA2D2001F8010B5B4242F2CC
:100C200010720DE093FBF2F404B937B104F1300017
:100C300001F8010B04FB123301270A2092FBF0F2AA
:100C4000002AEFDC002008702846D9E7FFF702FBF6
:100C5000FFF7B0FDFFF770FE0EE0084800780128AE
:100C60000AD1FFF701FC0446224605A10948FFF717
:100C7000A1FE002001490870EFE7000000000020FD
:100C8000202044697374616E636961202564206368
:100C90006D0D0A0000380140B80C0008000000206B
:100CA00018000000CC0B0008D00C00081800002031
:100CB00000040000DC0B0008000000000000000041
:100CC00001020304010203040607080902040608DE
:04000005080000ED02
:00000001FF
