:020000040800F2
:100000001804002001010008090100080B01000884
:100010000D0100080F010008110100080000000098
:1000200000000000000000000000000013010008B4
:100030001501000800000000170100081901000860
:100040001B0100081B0100081B0100081B01000820
:100050001B0100081B0100081B0100081B01000810
:100060001B0100081B0100081B0100081B01000800
:100070001B0100081B0100081B0100081B010008F0
:100080001B0100081B0100081B0100081B010008E0
:100090001B0100081B0100081B0100081B010008D0
:1000A0001B0100081B0100081B0100081B010008C0
:1000B0001B0100081B0100081B0100081B010008B0
:1000C0001B0100081B0100081B0100081B010008A0
:1000D0001B0100081B0100081B0100081B01000890
:1000E0001B0100081B0100081B010008DFF80CD0F1
:1000F00000F02EF80048004775080008180400209A
:100100000648804706480047FEE7FEE7FEE7FEE7B1
:10011000FEE7FEE7FEE7FEE7FEE7FEE7CD040008A8
:10012000ED00000830B50B460146002020220124D6
:1001300009E021FA02F59D4205D303FA02F5491BB5
:1001400004FA02F52844151EA2F10102F1DC30BDCB
:10015000064C074D06E0E06840F0010394E8070014
:1001600098471034AC42F6D3FFF7C4FFC808000824
:10017000E808000808B501460020009003480090F8
:100180000098084400900098008808BD006C00406A
:1001900008B500220092044A0092009A024400929C
:1001A000009A116008BD0000006C00402DE9F0418C
:1001B000024600250026002000230024002791F895
:1001C00003C00CF00F0591F803C00CF0100CBCF14B
:1001D000000F03D091F802C04CEA050591F800C069
:1001E000BCF1000F31D0146800202BE04FF0010C5F
:1001F0000CFA00F3B1F800C00CEA03069E4220D1CD
:1002000083004FF00F0C0CFA03F7BC4305FA03FC14
:100210004CEA040491F803C0BCF1280F06D14FF05A
:10022000010C0CFA00FCC2F814C00AE091F803C0FB
:10023000BCF1480F05D14FF0010C0CFA00FCC2F8DC
:1002400010C0401C0828D1D31460B1F800C0BCF124
:10025000FF0F34DD546800202EE000F1080C4FF051
:10026000010808FA0CF3B1F800C00CEA03069E423C
:1002700021D183004FF00F0C0CFA03F7BC4305FAB1
:1002800003FC4CEA040491F803C0BCF1280F05D12B
:1002900000F1080C08FA0CF8C2F8148091F803C0B9
:1002A000BCF1480F07D100F1080C4FF0010808FA23
:1002B0000CF8C2F81080401C0828CED35460BDE86A
:1002C000F0810000014908627047000000000E4202
:1002D00029B1064AD2690243044BDA6104E0034AB9
:1002E000D2698243014BDA6170470000001002407E
:1002F00029B1064A92690243044B9A6104E0034A19
:1003000092698243014B9A617047000000100240DD
:1003100030B500210022002400232D4D6D6805F02A
:100320000C0121B1042905D0082923D105E0294D6C
:10033000056022E0274D05601FE0254D6D6805F43E
:100340007012234D6D6805F48034022505EB92424E
:100350001CB9214D554305600BE01D4D6D6805F43A
:1003600000351DB11C4D5543056002E0194D554344
:10037000056002E0174D056000BF00BF144D6D68B9
:1003800005F0F0010909154D6B5C0568DD4045601D
:100390000F4D6D6805F4E061090A104D6B5C45680E
:1003A000DD4085600A4D6D6805F46051C90A0B4D4A
:1003B0006B5C4568DD40C560054D6D6805F44041E6
:1003C000890B074D6B5CC568B5FBF3F5056130BD66
:1003D0000010024000127A0000093D0000000020D9
:1003E0001000002010B500F001F810BD0CB5002081
:1003F000019000903348006840F480303149086033
:1004000000BF3048006800F4003000900198401CA4
:100410000190009818B90198B0F5A06FF1D1294862
:10042000006800F4003010B10120009001E00020CD
:1004300000900098012843D12348006840F0100044
:10044000214908600846006820F00300086008465B
:10045000006840F0020008601A4840681949486086
:100460000846406848600846406840F4806048603C
:100470000846406820F47C1048600846406840F414
:10048000E81048600846006840F08070086000BFCF
:100490000C48006800F000700028F9D00948406856
:1004A00020F00300074948600846406840F0020019
:1004B000486000BF0348406800F00C000828F9D1EC
:1004C0000CBD0000001002400020024010B513488F
:1004D000006840F001001149086008464068104972
:1004E00008400E494860084600680E4908400B491C
:1004F00008600846006820F48020086008464068CC
:1005000020F4FE0048604FF41F008860FFF76AFF88
:100510004FF000600449086010BD00000010024068
:100520000000FFF8FFFFF6FE08ED00E000B585B023
:10053000012144F20400FFF7DBFE4FF40070ADF838
:10054000100018208DF8130003208DF8120004A964
:100550001348FFF72BFE4FF48060ADF81000042025
:100560008DF8130004A90E48FFF720FE4FF4E13088
:1005700000900020ADF80400ADF80600ADF80800CA
:10058000ADF80C000C20ADF80A006946054800F0F3
:1005900025F80121034800F007F805B000BD000070
:1005A000000801400038014021B1828942F4005224
:1005B000828104E082894DF6FF731A408281704780
:1005C00002460020B1F5007F00D100BF13880B4028
:1005D0000BB1012000E00020704700002DE9F0473A
:1005E00086B005460E460024A24600BFA14600275D
:1005F000B08900B100BF2F462C8A4CF6FF70044032
:10060000F08804432C82AC894EF6F3100440B08885
:1006100031890843718908430443AC81AC8A4FF6A1
:10062000FF400440B0890443AC8201A8FFF770FE8C
:100630001F48874202D1DDF810A001E0DDF80CA0D0
:10064000A88900F4004040B10AEBCA0000EB0A1090
:1006500031684900B0FBF1F807E00AEBCA0000EB93
:100660000A1031688900B0FBF1F86420B8FBF0F0A3
:1006700004012009642101FB1089A88900F40040CD
:1006800040B1322000EBC900B0FBF1F000F00700F0
:10069000044308E0322000EB09106421B0FBF1F0C4
:1006A00000F00F0004432C8106B0BDE8F087000085
:1006B00000380140C1F30802828070470FB4054B37
:1006C00010B503A9044A029800F018F810BC5DF8B0
:1006D00014FB0000510800081400002002E008C8C4
:1006E000121F08C1002AFAD170477047002001E0AC
:1006F00001C1121F002AFBD1704700002DE9FF4FF6
:1007000089B09B460446002506E025280BD05A46B2
:100710000B999047641C6D1C20780028F5D10DB012
:100720002846BDE8F08F0027B8460122474900E07F
:10073000074314F8013F203B02FA03F00842F7D1C7
:1007400020782E2819D114F8010F47F004072A2821
:100750000ED06FF02F022078A0F1300109290CD8BB
:1007600008EB880102EB410100EB0108641CF2E791
:100770000A98641C50F8048B0A9020780028CED088
:10078000642808D0692806D075281ED05A460B99CF
:1007900090476D1C58E00A994FF00A0901C90A9167
:1007A000002802DA40422D2102E0390504D52B2130
:1007B0008DF82010012103E0F90704D02021F7E78C
:1007C0008A4608AE0DE00021FAE70A994FF00A09BF
:1007D00001C90A91F7E74946FFF7A4FC303106F852
:1007E000011D0028F7D1ADEB060000F120097807C4
:1007F00001D44FF00108C84502DDA8EB090000E074
:1008000000208046002706E008A85A46C05D0B99E4
:1008100090476D1C7F1C5745F6DB04E030205A469C
:100820000B9990476D1CB8F10001A8F10108F5DCA7
:1008300005E016F8010B5A460B9990476D1CB9F16B
:100840000001A9F10109F4DC641C65E70928010035
:1008500070B504460D46E1B20548FFF72BFF00BF17
:1008600040210348FFF7ACFE0128F9D1204670BDB6
:10087000003801400024FFF759FE01214FF0C0501D
:10088000FFF726FD0120FFF71DFD0420FFF772FC96
:100890000446601C84B221460420FFF779FC2146FF
:1008A00002A0FFF70BFF00BFFEE700000D0A205675
:1008B000616C6F722064656C20424B505F44523112
:1008C0003A2025640D0A0000E80800080000002016
:1008D00018000000DC0600080009000818000020CD
:1008E00000040000EC060008000000000102030400
:1008F00001020304060708090204060800000000BC
:04000005080000ED02
:00000001FF
