:020000040800F2
:10000000E804002001010008090100080B010008B4
:100010000D0100080F010008110100080000000098
:1000200000000000000000000000000013010008B4
:100030001501000800000000170100081901000860
:100040001B0100081B0100081B0100081B01000820
:100050001B0100081B0100081B0100081B01000810
:100060001B0100081B0100081B0100081B01000800
:100070001B0100081B0100081B0100081B010008F0
:100080001B0100081B0100081B0100081B010008E0
:100090001B0100081B0100081B0100081B010008D0
:1000A0001B0100081B0100081B0100081B010008C0
:1000B0001B0100081B0100081B0100081B010008B0
:1000C0001B0100081B0100081B0100081B010008A0
:1000D0001B0100081B0100081B0100081B01000890
:1000E0001B0100081B0100081B010008DFF80CD0F1
:1000F00000F02CF8004800476D0A0008E8040020D2
:100100000648804706480047FEE7FEE7FEE7FEE7B1
:10011000FEE7FEE7FEE7FEE7FEE7FEE791090008DF
:10012000ED00000810B540EA01040346A40703D01F
:1001300009E010C9121F10C3042AFAD203E011F813
:10014000014B03F8014B521EF9D210BD064C074D6E
:1001500006E0E06840F0010394E807009847103497
:10016000AC42F6D3FFF7C6FFB00D0008D00D000873
:100170002DE9F0410246002500260020002300243E
:10018000002791F803C00CF00F0591F803C00CF0A4
:10019000100CBCF1000F03D091F802C04CEA050529
:1001A00091F800C0BCF1000F31D0146800202BE0A2
:1001B0004FF0010C0CFA00F3B1F800C00CEA030692
:1001C0009E4220D183004FF00F0C0CFA03F7BC4382
:1001D00005FA03FC4CEA040491F803C0BCF1280FB3
:1001E00006D14FF0010C0CFA00FCC2F814C00AE072
:1001F00091F803C0BCF1480F05D14FF0010C0CFA87
:1002000000FCC2F810C0401C0828D1D31460B1F81B
:1002100000C0BCF1FF0F34DD546800202EE000F177
:10022000080C4FF0010808FA0CF3B1F800C00CEA12
:1002300003069E4221D183004FF00F0C0CFA03F706
:10024000BC4305FA03FC4CEA040491F803C0BCF17A
:10025000280F05D100F1080C08FA0CF8C2F8148038
:1002600091F803C0BCF1480F07D100F1080C4FF022
:10027000010808FA0CF8C2F81080401C0828CED3F8
:100280005460BDE8F081000000B585B00121082070
:1002900000F090FA0121084600F08CFA012148058F
:1002A00000F078FAC020ADF810001C208DF8130083
:1002B00003208DF8120004A90F48FFF759FF0F48DB
:1002C00000900020ADF804004BF6FF70ADF806007A
:1002D0001520ADF808004FF48060ADF80A00000169
:1002E000ADF80C006946064800F062F801210448A8
:1002F00000F01DF805B000BD000C0140801A06009A
:100300000054004070B50246002400250023002060
:10031000958A138B1B0445EA030626F07F4404EA02
:1003200001068E4201D1012000E0002070BD21B104
:10033000028842F00102028004E002884FF6FE7358
:100340001A400280704721B1028842F48072028014
:1003500004E002884FF6FF631A400280704721B123
:10036000028842F40072028004E002884FF6FF53D4
:100370001A40028070470CB502460020002301930A
:10038000009300920B0F019321F07F41019B1BB161
:10039000009B1433009303E0090C009B1833009377
:1003A000009B1B680B400BB1012000E000200CBD3E
:1003B0002DE9F04385B004460D460026B1460427DA
:1003C000DFF8CC80A6884FF6C0700640684600F083
:1003D00001FADDF808802F48B8FBF0F01FFA80F929
:1003E00046EA0906A68020884FF6FE710840208064
:1003F00000262949286888420CD828684000B8FBA4
:10040000F0F087B2042F00DA04273E4309F101001F
:10041000208427E0E8884BF6FF71884206D12868DF
:1004200000EB4000B8FBF0F087B209E0286800EB71
:10043000C00101EB0010B8FBF0F087B247F4804731
:10044000C7F30B0008B947F0010747F40040064323
:100450004FF4967009FB00F04FF47A7190FBF1F0C5
:10046000401C2084A683208840F00100208026883C
:100470004FF6F5300640A888698908430643268070
:10048000A88929890843208105B0BDE8F0830000D0
:1004900000127A0040420F00A086010012B141F024
:1004A000010102E04FF6FE7319400182704701829C
:1004B0007047000070B506460C46154600BF4FF465
:1004C00000313046FFF757FF0028F8D101213046B0
:1004D000FFF739FF00BF0F493046FFF713FF002831
:1004E000F9D06806010E22463046FFF7D7FF34B92F
:1004F00000BF09493046FFF705FF0028F9D0012C5D
:1005000007D100BF0349491C3046FFF7FBFE002816
:10051000F8D070BD010003008200070070B50446EA
:100520000D4629462046FFF7C2FF00BF034920467B
:10053000FFF7E8FE0028F9D070BD00008400070036
:1005400010B508200249C871002000F081F810BDE4
:10055000C900002070B505460C46012C05DD214878
:10056000407840F008001F4948701E48047132204E
:1005700000F066FA1B49C87900F06AF84FF47A7007
:1005800000F05EFA302000F0EEF841F2941000F036
:100590003FFA302000F0E7F841F2941000F038FA0A
:1005A000302000F0E0F8962000F032FA202000F031
:1005B000DAF80C49497841F0200000F01EF80420D8
:1005C0000849887000F034F800F00EF80220054960
:1005D000C870C97841F0040000F00FF800F050F83E
:1005E00070BD0000C900002010B5012000F005F822
:1005F00040F6B83000F00CFA10BD10B504460021EA
:10060000204600F07AF810BD70B504460E4604F09E
:100610000704402141EAC400FFF7EFFF002503E093
:10062000705D00F099F86D1C082DF9DB70BD0000BD
:1006300010B50648807840F0040004498870897835
:1006400041F00800FFF7D9FF10BD0000C9000020ED
:1006500010B504460848027800210848FFF72AFF31
:100660000548C07940EA04010448FFF757FF01211B
:100670000248FFF774FE10BDC9000020005400407E
:1006800010B50220FFF7B9FF40F6B83000F0C0F90E
:1006900010BD000070B506460C46154608480670A9
:1006A0004471857100200649C871FFF7EDFD0020F7
:1006B0000349487029462046FFF74CFF70BD0000F3
:1006C000C900002010B5044644F00400FFF7C0FF45
:1006D000012000F09DF924F00400FFF7B9FF32205B
:1006E00000F096F910BD10B51820FFF786FF10BD79
:1006F00010B51C20FFF781FF10BD2DE9F041044625
:100700000D4604F0F006F02000EA041746EA050062
:1007100000F029F847EA050000F025F8BDE8F0816F
:100720007FB505460C460A4B0FCB8DE80F000948F4
:100730000079A04203DA07480079401EC4B21DF8D0
:1007400024102944C9B241F08000FFF756FF7FBD55
:10075000340D0008C900002010B5044601212046D0
:10076000FFF7CBFF10BD10B504462046FFF770FF22
:100770002046FFF7A7FF10BD70B50446002504E032
:10078000605DFFF7E9FF681CC5B2605D0028F7D126
:1007900070BD000029B1064AD2690243044BDA61F8
:1007A00004E0034AD2698243014BDA6170470000DA
:1007B0000010024029B1064A92690243044B9A6133
:1007C00004E0034A92698243014B9A61704700003A
:1007D0000010024030B500210022002400232D4DDE
:1007E0006D6805F00C0121B1042905D0082923D139
:1007F00005E0294D056022E0274D05601FE0254DED
:100800006D6805F47012234D6D6805F4803402257F
:1008100005EB92421CB9214D554305600BE01D4D7F
:100820006D6805F400351DB11C4D5543056002E0AF
:10083000194D5543056002E0174D056000BF00BF2C
:10084000144D6D6805F0F0010909154D6B5C0568E4
:10085000DD4045600F4D6D6805F4E061090A104DFB
:100860006B5C4568DD4085600A4D6D6805F460513C
:10087000C90A0B4D6B5C4568DD40C560054D6D6870
:1008800005F44041890B074D6B5CC568B5FBF3F57A
:10089000056130BD0010024000127A0000093D00E1
:1008A000D1000020E100002010B500F001F810BDDB
:1008B0000CB50020019000903348006840F480306F
:1008C0003149086000BF3048006800F400300090F3
:1008D0000198401C0190009818B90198B0F5A06FDC
:1008E000F1D12948006800F4003010B101200090D7
:1008F00001E0002000900098012843D123480068BF
:1009000040F01000214908600846006820F003000C
:1009100008600846006840F0020008601A48406815
:10092000194948600846406848600846406840F4F5
:10093000806048600846406820F47C1048600846A3
:10094000406840F4E81048600846006840F0807055
:10095000086000BF0C48006800F000700028F9D063
:100960000948406820F0030007494860084640688D
:1009700040F00200486000BF0348406800F00C00EF
:100980000828F9D10CBD00000010024000200240F0
:1009900010B51348006840F001001149086008468E
:1009A0004068104908400E494860084600680E49F2
:1009B00008400B4908600846006820F48020086061
:1009C0000846406820F4FE0048604FF41F0088602D
:1009D000FFF76AFF4FF000600449086010BD000097
:1009E000001002400000FFF8FFFFF6FE08ED00E0F7
:1009F00002E008C8121F08C1002AFAD170477047E8
:100A0000002001E001C1121F002AFBD17047000045
:100A100010B586B004466846FFF7DCFE074901982A
:100A2000B0FBF1F06043059002E00598401E059090
:100A300005980028F9D106B010BD000080969800F6
:100A400010B586B004466846FFF7C4FE42F2107146
:100A50000198B0FBF1F06043059002E00598401E5C
:100A6000059005980028F9D106B010BD30B589B0C1
:100A7000042210213820FFF70DFEFFF761FDFFF77C
:100A8000B3FD00210846FFF74BFE7AA0FFF774FE86
:100A900001210020FFF744FE7BA0FFF76DFE02213D
:100AA0000020FFF73DFE7DA0FFF766FE032100203A
:100AB000FFF736FE7EA0FFF75FFE4FF47A70FFF778
:100AC000BFFFFFF791FD00240CE0E1B20020FFF72B
:100AD00027FE10227B496846FFF724FB0546FFF7F7
:100AE0004BFE641C042CF0DB4FF47A70FFF7A8FF78
:100AF00001210020FFF714FE73A0FFF73DFE002444
:100B000006E0FFF7F0FD4FF4FA70FFF799FF641C61
:100B1000142CF6DB4FF47A70FFF792FF01210020CE
:100B2000FFF7FEFD6DA0FFF727FE002406E0FFF7AC
:100B3000DFFD4FF4FA70FFF783FF641C142CF6DB23
:100B40004FF47A70FFF77CFFFFF74EFD00240CE0B6
:100B5000E1B20020FFF7E4FD10225A496846FFF792
:100B6000E1FA0546FFF708FE641C042CF0DB4FF4A5
:100B70007A70FFF765FFFFF737FD5D490020FFF74B
:100B800043FD5C490120FFF73FFD5B490220FFF771
:100B90003BFD5A490320FFF737FD59490420FFF771
:100BA00033FD58490520FFF72FFD57490620FFF771
:100BB0002BFD56490720FFF727FD002413E00021F5
:100BC0000846FFF7ADFD52490868FFF7D5FD012142
:100BD0000A20FFF7A5FDE0B2FFF7BEFD4FF47A70E3
:100BE000FFF72EFF641C072CE9DD40F2DC50FFF715
:100BF00027FFFFF7F9FC47490020FFF705FD4649AD
:100C00000120FFF701FD45490220FFF7FDFC4449A3
:100C10000320FFF7F9FC43490420FFF7F5FC4249A4
:100C20000520FFF7F1FC41490620FFF7EDFC4049A4
:100C30000720FFF7E9FC002415E000210846FFF734
:100C40006FFD334A611C52F82100FFF795FD012129
:100C50000A20FFF765FDE0B2FFF77EFD4FF47A70E2
:100C6000FFF7EEFE641C082CE7DBFFF7BDFC00205D
:100C700009B030BD2D20505255454241204C4344CF
:100C8000204932432D0000004C696E6561203220FE
:100C90002D4142434445464748000000303132333D
:100CA0003435363738393031323334353600000098
:100CB0006162636465666768696A6B6C6D6E6F70AC
:100CC00071000000A40000204D4F564552204120E5
:100CD000495A515549455244000000004D4F564570
:100CE0005220412044455245434841200000000025
:100CF0004000002048000020500000205800002044
:100D000060000020680000207000002078000020B3
:100D100080000020000000200800002010000020BB
:100D200018000020200000202800002030000020B3
:100D30003800002000000000400000001400000007
:100D40005400000063617261203A2020000000001E
:100D50006E6F7461203A2020000000007061746F93
:100D6000203A2020000000006372757A203A20208B
:100D70000000000072656C6F6A203A2000000000DD
:100D8000626174657269613A00000000636F6E749D
:100D9000726F6C3A00000000636F72617A6F6E3A96
:100DA000000000007265746F726E6F3A0000000000
:100DB000D00D000800000020E8000000F009000845
:100DC000B80E0008E800002000040000000A000837
:100DD0000203020E1E0C0000000E1517110E00007B
:100DE000000A0A0A00110E00000A1F1F0E0400006C
:100DF000000C1D0F0F060000000103161C08000068
:100E0000001B0E040E1B0000010105091F08040051
:100E10000E1B11111111111F0E1B111111111F1F8A
:100E20000E1B1111111F1F1F0E1B11111F1F1F1F42
:100E30000E1B111F1F1F1F1F0E1B1F1F1F1F1F1FFA
:100E40000E1F1F1F1F1F1F1F0E1F1B171D1B1F1FE6
:100E5000800D0008500D0008740D0008440D0008B6
:100E6000980D00085C0D00088C0D0008680D000846
:100E7000A40D0008303132333435363738396162E9
:100E8000636465666768696A6B6C6D6E6F707172BA
:100E9000737475767778797A00000000000000009E
:100EA0000000000000010203040102030406070819
:080EB00009020406080000001D
:04000005080000ED02
:00000001FF
