:020000040800F2
:100000000004002001010008090100080B0100089C
:100010000D0100080F010008110100080000000098
:1000200000000000000000000000000013010008B4
:100030001501000800000000170100081901000860
:100040001B0100081B0100081B0100081B01000820
:100050001B0100081B0100081B0100081B01000810
:100060001B0100081B0100081B0100081B01000800
:100070001B0100081B0100081B0100081B010008F0
:100080001B0100081B0100081B0100081B010008E0
:100090001B0100081B0100081B0100081B010008D0
:1000A0001B0100081B0100081B0100081B010008C0
:1000B0001B0100081B0100081B0100081B010008B0
:1000C0001B0100081B0100081B0100081B010008A0
:1000D0001B0100081B0100081B0100081B01000890
:1000E0001B0100081B0100081B010008DFF80CD0F1
:1000F00000F018F800480047290500080004002017
:100100000648804706480047FEE7FEE7FEE7FEE7B1
:10011000FEE7FEE7FEE7FEE7FEE7FEE7A9040008CC
:10012000ED000008064C074D06E0E06840F00103D2
:1001300094E8070098471034AC42F6D3FFF7DAFF93
:1001400098050008A805000808B50121102000F056
:1001500003F90121082000F0FFF84FF40050ADF83A
:10016000000003208DF8020010208DF8030069467E
:10017000084800F013F80120ADF8000003208DF8C6
:10018000020048208DF803006946034800F006F895
:1001900008BD000000100140000C01402DE9F041B5
:1001A000024600250026002000230024002791F8A5
:1001B00003C00CF00F0591F803C00CF0100CBCF15B
:1001C000000F03D091F802C04CEA050591F800C079
:1001D000BCF1000F31D0146800202BE04FF0010C6F
:1001E0000CFA00F3B1F800C00CEA03069E4220D1DD
:1001F00083004FF00F0C0CFA03F7BC4305FA03FC25
:100200004CEA040491F803C0BCF1280F06D14FF06A
:10021000010C0CFA00FCC2F814C00AE091F803C00B
:10022000BCF1480F05D14FF0010C0CFA00FCC2F8EC
:1002300010C0401C0828D1D31460B1F800C0BCF134
:10024000FF0F34DD546800202EE000F1080C4FF061
:10025000010808FA0CF3B1F800C00CEA03069E424C
:1002600021D183004FF00F0C0CFA03F7BC4305FAC1
:1002700003FC4CEA040491F803C0BCF1280F05D13B
:1002800000F1080C08FA0CF8C2F8148091F803C0C9
:10029000BCF1480F07D100F1080C4FF0010808FA33
:1002A0000CF8C2F81080401C0828CED35460BDE87A
:1002B000F0810246002093680B400BB1012000E062
:1002C0000020704741617047016170474CF6CC4097
:1002D00001490860704700000030004070B50546D5
:1002E0000C4645F2555000F01FF8284600F010F873
:1002F000204600F013F800F003F8FFF7E7FF70BDA9
:100300004AF6AA200149086070470000003000400A
:100310000149486070470000003000400149886092
:10032000704700000030004001490860704700003D
:100330000030004010B545F25550FFF7F5FF03209F
:10034000FFF7E6FF4FF4FA70FFF7E8FFFFF7D8FF7B
:10035000FFF7BCFF10BD000029B1064A92690243B5
:10036000044B9A6104E0034A92698243014B9A610B
:10037000704700000010024010B501460022002323
:1003800000204A11012A02D1094C236806E0022A02
:1003900002D1074C236A01E0054C636A01F01F0299
:1003A000012494401C400CB1012000E0002010BD4D
:1003B000001002400149086070470000800442427A
:1003C00010B500F001F810BD0CB5002001900090B0
:1003D0003348006840F480303149086000BF30483D
:1003E000006800F4003000900198401C01900098D3
:1003F00018B90198B0F5A06FF1D12948006800F450
:10040000003010B10120009001E000200090009821
:10041000012843D12348006840F0100021490860BA
:100420000846006820F0030008600846006840F0B5
:10043000020008601A484068194948600846406848
:1004400048600846406840F480604860084640685C
:1004500020F47C1048600846406840F4E81048608A
:100460000846006840F08070086000BF0C480068D3
:1004700000F000700028F9D00948406820F003001F
:10048000074948600846406840F00200486000BFE5
:100490000348406800F00C000828F9D10CBD0000AA
:1004A000001002400020024010B51348006840F0E0
:1004B00001001149086008464068104908400E498B
:1004C0004860084600680E4908400B490860084625
:1004D000006820F4802008600846406820F4FE0090
:1004E00048604FF41F008860FFF76AFF4FF000601C
:1004F0000449086010BD0000001002400000FFF831
:10050000FFFFF6FE08ED00E002E008C8121F08C178
:10051000002AFAD170477047002001E001C1121F84
:10052000002AFBD170470000FFF70EFE4FF4005188
:100530001748FFF7C7FE002000E0401CB0F5801F01
:10054000FBDB0120FFF736FF00BF6120FFF714FF40
:100550000028FAD0FFF7EEFE4FF400510C48FFF7E9
:10056000B3FE14E001210B48FFF7A3FE50B94FF48E
:1005700000510748FFF7A6FE4FF47A610320FFF70A
:10058000ADFE04E04FF400510148FFF79DFEE9E79E
:1005900000100140000C0140A805000800000020E8
:0805A00000040000180500082A
:04000005080000ED02
:00000001FF
