:020000040800F2
:100000002804002001010008090100080B01000874
:100010000D0100080F010008110100080000000098
:1000200000000000000000000000000013010008B4
:100030001501000800000000170100081901000860
:100040001B0100081B0100081B010008C50800086F
:100050001B0100081B0100081B0100081B01000810
:100060001B0100081B0100081B0100081B01000800
:100070001B0100081B0100081B0100081B010008F0
:100080001B0100081B0100081B0100081B010008E0
:100090001B0100081B0100081B01000805020008E5
:1000A0001B0100081B0100081B0100081B010008C0
:1000B0001B0100081B0100081B0100081B010008B0
:1000C0001B0100081B0100081B0100081B010008A0
:1000D0001B0100081B0100081B0100081B01000890
:1000E0001B0100081B0100081B010008DFF80CD0F1
:1000F00000F02EF800480047911000082804002066
:100100000648804706480047FEE7FEE7FEE7FEE7B1
:10011000FEE7FEE7FEE7FEE7FEE7FEE7E90C000884
:10012000ED00000830B50B460146002020220124D6
:1001300009E021FA02F59D4205D303FA02F5491BB5
:1001400004FA02F52844151EA2F10102F1DC30BDCB
:10015000064C074D06E0E06840F0010394E8070014
:1001600098471034AC42F6D3FFF7C4FF5C13000885
:100170007C13000810B5012000F0C0FA002000F048
:10018000BDFA10BD08B5014600200090034800905C
:100190000098084400900098008808BD006C00405A
:1001A00008B500220092044A0092009A024400928C
:1001B000009A116008BD0000006C00400EB50121DE
:1001C000042000F08BFA2020ADF8080048208DF8BC
:1001D0000B0002208DF80A0002A9094800F0B4F8CB
:1001E0002020009000208DF804000C208DF80500E0
:1001F00001208DF80600684600F048F80EBD0000AA
:100200000008014010B5202000F02CF888B1202013
:1002100000F022F8002000F0ABFC00F0D5FC00213B
:10022000022000F089FB03A000F056FE00200949DF
:10023000086010BD2020414C41524D41204445539F
:100240004142494C4954414441202121212121214D
:10025000200D0A00080000200149086070470000D6
:1002600014040140014600200022074B1B6803EAEA
:100270000102054B14331B680B4013B10AB1012076
:1002800000E00020704700000004014000212349E5
:100290008279002A3AD00A46126803689A430B46CC
:1002A0001A600A1D126803689A430B1D1A600279CE
:1002B00011440A6803681A430A60184A083212682F
:1002C00003689A43154B08331A601A1D12680368B5
:1002D0009A43124B0C331A604279102A0ED11A1F1E
:1002E000126803681A430D4B08331A601A1D12680E
:1002F00003681A43094B0C331A600DE00749427931
:1003000011440A6803681A430A6005E0027911443F
:100310000A6803689A430A607047000000040140BD
:100320002DE9F04104460D4616464FF461606043E6
:10033000C5EB051100EB81008719384600F018FC69
:1003400000F042FCBDE8F0812DE9F04102460025B5
:100350000026002000230024002791F803C00CF0A1
:100360000F0591F803C00CF0100CBCF1000F03D086
:1003700091F802C04CEA050591F800C0BCF1000FED
:1003800031D0146800202BE04FF0010C0CFA00F380
:10039000B1F800C00CEA03069E4220D183004FF062
:1003A0000F0C0CFA03F7BC4305FA03FC4CEA0404F7
:1003B00091F803C0BCF1280F06D14FF0010C0CFAE4
:1003C00000FCC2F814C00AE091F803C0BCF1480F69
:1003D00005D14FF0010C0CFA00FCC2F810C0401C13
:1003E0000828D1D31460B1F800C0BCF1FF0F34DD90
:1003F000546800202EE000F1080C4FF0010808FAC4
:100400000CF3B1F800C00CEA03069E4221D1830030
:100410004FF00F0C0CFA03F7BC4305FA03FC4CEA4F
:10042000040491F803C0BCF1280F05D100F1080CB9
:1004300008FA0CF8C2F8148091F803C0BCF1480F18
:1004400007D100F1080C4FF0010808FA0CF8C2F8C7
:100450001080401C0828CED35460BDE8F0812DE9FF
:10046000F04104460D4616460021012000F064FAD2
:10047000012000F01DF94FF461606043C5EB0511E8
:1004800000EB81008719384600F080FB00F09CFBF0
:100490000121084600F050FABDE8F0812DE9FC5F2B
:1004A00004464FF46160B4FBF0F0C0B20A2190FB47
:1004B000F1F0C5B24FF46160B4FBF0F0C0B290FB54
:1004C000F1F201FB1200C6B24FF46160B4FBF0F12F
:1004D00000FB11403C21B0FBF1F0C0B20A2190FBBF
:1004E000F1F0C7B24FF46160B4FBF0F100FB1140D2
:1004F0003C21B0FBF1F0C0B20A2190FBF1F201FB0C
:10050000120000F0FF084FF46160B4FBF0F100FB53
:1005100011403C21B0FBF1F201FB12000A2190FBDB
:10052000F1F000F0FF094FF46160B4FBF0F100FB63
:1005300011403C21B0FBF1F201FB12000A2190FBBB
:10054000F1F201FB120000F0FF0A05EB850006EB5B
:10055000400000F0FF0B07EB870008EB4000C0B243
:10056000019009EB89000AEB4000C0B200905946A7
:1005700008A0DDE9003200F0AFFC0D48006801285A
:1005800003D10CA000F0A8FC02E00CA000F0A4FC39
:10059000BDE8FC9F0D0A2020484F52412052544391
:1005A0003A202025643A25643A25642000000000A2
:1005B0000800002020284129200D0A000D0A000013
:1005C00008B54FF4C06000F069F803208DF8000012
:1005D00000208DF801008DF8020001208DF8030045
:1005E000684600F023F829208DF800000F208DF8D0
:1005F000010000208DF8020001208DF803006846FC
:1006000000F014F84FF4C06000F048F817208DF89F
:10061000000001208DF8010000208DF8020001206B
:100620008DF80300684600F001F808BD70B50021A0
:1006300000230F22C47804B3154C246804F4E0644A
:10064000C4F5E064210AC1F10403CA40447804FA05
:1006500003F184781440214309010E4C0678A1551A
:10066000047804F01F050124AC4005786D11AD003D
:1006700005F1E025C5F8004109E0047804F01F0504
:100680000124AC40044D0678761145F8264070BD33
:100690000CED00E000E400E080E100E002490143ED
:1006A000024A1160704700000000FA050CED00E0FE
:1006B000014908627047000000000E4229B1064A55
:1006C000D2690243044BDA6104E0034AD2698243EF
:1006D000014BDA61704700000010024029B1064A60
:1006E00092690243044B9A6104E0034A926982438F
:1006F000014B9A61704700000010024001490860F8
:1007000070470000400442420348406A40F0807055
:1007100001494862704700000010024030B50021D6
:100720000022002400232D4D6D6805F00C0121B13D
:10073000042905D0082923D105E0294D056022E0D0
:10074000274D05601FE0254D6D6805F47012234D9F
:100750006D6805F48034022505EB92421CB9214DE9
:10076000554305600BE01D4D6D6805F400351DB166
:100770001C4D5543056002E0194D5543056002E0EC
:10078000174D056000BF00BF144D6D6805F0F00106
:100790000909154D6B5C0568DD4045600F4D6D68BE
:1007A00005F4E061090A104D6B5C4568DD40856029
:1007B0000A4D6D6805F46051C90A0B4D6B5C4568C4
:1007C000DD40C560054D6D6805F44041890B074D5E
:1007D0006B5CC568B5FBF3F5056130BD00100240E8
:1007E00000127A0000093D000C0000201C000020CF
:1007F00010B501460022002300204A11012A02D12F
:10080000094C236806E0022A02D1074C236A01E062
:10081000054C636A01F01F02012494401C400CB196
:10082000012000E0002010BD0010024001490860D6
:100830007047000080044242014908607047000090
:100840003C0442420249096A0143014A116270476D
:1008500000100240024909888143014A1180704713
:10086000042800400348008840F010000149088037
:100870007047000004280040034800884FF6EF71DD
:1008800008400149088070470428004000210348BF
:100890000188001F008841EA004070471C28004082
:1008A00001460020064A12880A40D0B2044A121FAC
:1008B00012880A4012B108B1012000E00020704700
:1008C0000428004010B50120FFF7EAFF70B10120B5
:1008D000FFF7C0FF00F078F9FFF7D8FF0E49884214
:1008E00004D1002000F052F900F06EF90220FFF769
:1008F000D7FF80B10220FFF7ADFF00F031F907A06C
:1009000000F0EAFAFFF7C2FF00F1B404204600F05D
:100910002FF900F059F910BD805101002020414C01
:1009200041524D41204143544956414441202121E7
:1009300021212121210D0A0029B1064A12880243F2
:10094000044B1A8004E0034A12888243014B1A8048
:10095000704700000028004010B501214FF0C05042
:10096000FFF7ACFE0120FFF7A3FE2748006801282F
:100970000DD026A000F0B0FAFFF7FCFB0120FFF736
:10098000BDFE0020FFF7BAFE26A000F0A5FA012068
:10099000FFF74CFF2EA000F09FFA00BF6120FFF789
:1009A00027FF0028FAD04FF40070FFF74BFF30A06C
:1009B00000F092FA0120FFF73FFF36A000F08CFA1A
:1009C00000F002F93AA000F087FA00F007F900F011
:1009D000FBF801210846FFF7AFFF3EA000F07CFACC
:1009E00001210220FFF7A8FF46A000F075FA00F0F1
:1009F000EBF849F63F4000F0D7F84EA000F06CFA53
:100A000000F0E2F810BD0000040000202020526534
:100A1000696E6963696F2064656C20525443200DD0
:100A20000A000000202020202D2052657365746587
:100A3000616E646F206261636B7570206465207203
:100A40006567697374726F73205254430D0A000016
:100A5000202020202D20486162696C6974616E64D9
:100A60006F206675656E7465204C5349200D0A0031
:100A7000202020202D20486162696C6974616E64B9
:100A80006F204C534920656E20525443434C4B20F9
:100A90000D0A0000202020202D20486162696C6929
:100AA00074616E646F20525443434C4B0D0A000036
:100AB000202020202D204573706572616E646F20A8
:100AC00073696E63726F6E697A6163696F6E200D10
:100AD0000A000000202020202D20486162696C69F6
:100AE00074616E646F20496E7465727275706369AB
:100AF0006F6E2067656E6572616C20525443200DE5
:100B00000A000000202020202D20486162696C69C5
:100B100074616E646F20496E74657272757063697A
:100B20006F6E20646520416C61726D612052544388
:100B3000200D0A00202020202D20436F6E6669675B
:100B4000757261646F205072657363616C657220A9
:100B50004C534920283430206B487A29200D0A0054
:100B600010B5FFF793FE04462046FFF797FC10BD33
:100B700000B50246FFF776FE100C03490880091DF8
:100B80000A80FFF779FE00BD2028004000B502462C
:100B9000FFF768FE100C03490880091D0A80FFF763
:100BA0006BFE00BD1828004000B50246FFF75AFE54
:100BB000C2F3034003490880091D0A80FFF75CFE69
:100BC00000BD00000828004000BF0348008800F076
:100BD00020000028F9D0704704280040074800880A
:100BE0004FF6F77108400549088000BF03480088A8
:100BF00000F008000028F9D07047000004280040E9
:100C000010B500F001F810BD0CB500200190009067
:100C10003348006840F480303149086000BF3048F4
:100C2000006800F4003000900198401C019000988A
:100C300018B90198B0F5A06FF1D12948006800F407
:100C4000003010B10120009001E0002000900098D9
:100C5000012843D12348006840F010002149086072
:100C60000846006820F0030008600846006840F06D
:100C7000020008601A484068194948600846406800
:100C800048600846406840F4806048600846406814
:100C900020F47C1048600846406840F4E810486042
:100CA0000846006840F08070086000BF0C4800688B
:100CB00000F000700028F9D00948406820F00300D7
:100CC000074948600846406840F00200486000BF9D
:100CD0000348406800F00C000828F9D10CBD000062
:100CE000001002400020024010B51348006840F098
:100CF00001001149086008464068104908400E4943
:100D00004860084600680E4908400B4908600846DC
:100D1000006820F4802008600846406820F4FE0047
:100D200048604FF41F008860FFF76AFF4FF00060D3
:100D30000449086010BD0000001002400000FFF8E8
:100D4000FFFFF6FE08ED00E000B585B0012144F29A
:100D50000400FFF7C3FC4FF40070ADF8100018203A
:100D60008DF8130003208DF8120004A91348FFF733
:100D7000EBFA4FF48060ADF8100004208DF81300FA
:100D800004A90E48FFF7E0FA4FF4E130009000208C
:100D9000ADF80400ADF80600ADF80800ADF80C00A1
:100DA0000C20ADF80A006946054800F025F801213D
:100DB000034800F007F805B000BD0000000801403E
:100DC0000038014021B1828942F40052828104E05E
:100DD00082894DF6FF731A408281704702460020D7
:100DE000B1F5007F00D100BF13880B400BB101208B
:100DF00000E00020704700002DE9F04786B005466E
:100E00000E460024A24600BFA1460027B08900B1CB
:100E100000BF2F462C8A4CF6FF700440F088044334
:100E20002C82AC894EF6F3100440B0883189084317
:100E3000718908430443AC81AC8A4FF6FF400440FB
:100E4000B0890443AC8201A8FFF768FC1F488742C1
:100E500002D1DDF810A001E0DDF80CA0A88900F4B3
:100E6000004040B10AEBCA0000EB0A1031684900AB
:100E7000B0FBF1F807E00AEBCA0000EB0A1031689A
:100E80008900B0FBF1F86420B8FBF0F00401200900
:100E9000642101FB1089A88900F4004040B1322090
:100EA00000EBC900B0FBF1F000F00700044308E0DC
:100EB000322000EB09106421B0FBF1F000F00F00CC
:100EC00004432C8106B0BDE8F087000000380140E3
:100ED000C1F30802828070470FB4054B10B503A917
:100EE000044A029800F018F810BC5DF814FB0000EA
:100EF0006D1000082000002002E008C8121F08C181
:100F0000002AFAD170477047002001E001C1121F8A
:100F1000002AFBD1704700002DE9FF4F89B09B46A6
:100F20000446002506E025280BD05A460B99904729
:100F3000641C6D1C20780028F5D10DB02846BDE852
:100F4000F08F0027B8460122474900E0074314F814
:100F5000013F203B02FA03F00842F7D120782E2807
:100F600019D114F8010F47F004072A280ED06FF0AA
:100F70002F022078A0F1300109290CD808EB880154
:100F800002EB410100EB0108641CF2E70A98641CC3
:100F900050F8048B0A9020780028CED0642808D01E
:100FA000692806D075281ED05A460B9990476D1CAB
:100FB00058E00A994FF00A0901C90A91002802DA9B
:100FC00040422D2102E0390504D52B218DF8201057
:100FD000012103E0F90704D02021F7E78A4608AE93
:100FE0000DE00021FAE70A994FF00A0901C90A91B8
:100FF000F7E74946FFF796F8303106F8011D00285B
:10100000F7D1ADEB060000F12009780701D44FF0CD
:101010000108C84502DDA8EB090000E00020804679
:10102000002706E008A85A46C05D0B9990476D1C42
:101030007F1C5745F6DB04E030205A460B99904759
:101040006D1CB8F10001A8F10108F5DC05E016F807
:10105000010B5A460B9990476D1CB9F10001A9F19B
:101060000109F4DC641C65E70928010070B5044639
:101070000D46E1B20548FFF72BFF00BF40210348B2
:10108000FFF7ACFE0128F9D1204670BD00380140C1
:10109000FFF75AFEFFF794FAFFF790F82EA0FFF73C
:1010A0001BFF3CA0FFF718FF48A0FFF715FF042027
:1010B000FFF768F84AF2A55188421DD051A0FFF70A
:1010C0000BFF58A0FFF708FFFFF746FC5EA0FFF7F5
:1010D00003FF002211460F20FFF7C1F90022022171
:1010E0000F20FFF71DF961A0FFF7F6FE4AF2A551A8
:1010F0000420FFF755F81BE07B20FFF779FB18B1C0
:1011000063A0FFF7E9FE06E07A20FFF771FB10B15C
:1011100068A0FFF7E1FE72A0FFF7DEFE7DA0FFF7FB
:10112000DBFE012085490860FFF716FCFFF7ECFAAB
:1011300011E0FFF7ABFB82490968401A0A280AD977
:101140007F4801687FA0FFF7C7FEFFF709FDFFF7A3
:101150009DFB7B490860ECE70D0A3D3D3D3D3D3D73
:101160003D3D3D3D3D3D3D3D3D3D3D3D3D3D3D3DAF
:101170003D3D3D3D3D3D3D3D3D3D3D3D3D3D3D3D9F
:101180003D3D3D3D3D3D3D3D3D3D3D3D3D3D0D0AF2
:1011900000000000202050524F4752414D41204452
:1011A000454D4F204445205554494C495A414349E7
:1011B0004F4E204445204C4120414C41524D41204E
:1011C00044454C2052544320200D0A003D3D3D3DF6
:1011D0003D3D3D3D3D3D3D3D3D3D3D3D3D3D3D3D3F
:1011E0003D3D3D3D3D3D3D3D3D3D3D3D3D3D3D3D2F
:1011F0003D3D3D3D3D3D3D3D3D3D3D3D3D3D3D3D1F
:101200000D0A00000D0A2020525443204E4F204367
:101210004F4E464947555241444F2E2E2E2E0D0A11
:10122000000000000D0A20205265696E6963696143
:101230006E646F205254432C206573706572652E66
:101240002E2E2E0D0A0000000D0A2020436F6E6620
:1012500069677572616E646F205254432C20657308
:10126000706572652E2E2E2E0D0A00000D0A2020AC
:101270002D2D2D2052544320434F4E464947555261
:1012800041444F202D2D2D20212121200D0A000029
:101290000D0A2020556E205265696E6963696F20C2
:1012A00061206F6375727269646F2E2E2E2E0D0A87
:1012B0000D0A00000D0A2020556E205265736574DA
:1012C0002065787465726E6F207365206120646597
:1012D0007465637461646F2E2E2E2E0D0A0D0A0044
:1012E00020204E4F206573206E65636573617269BF
:1012F0006F20636F6E666967757261722064652026
:101300006E7565766F20656C205254432E2E2E2EFE
:101310000D0A000020202E2E2E20496E696369617F
:101320006E646F20656C205254432C206573706589
:101330007265202E2E2E0D0A0000000004000020F1
:10134000000000200D0A2020546F74616C2073652A
:1013500067756E646F733A20256400007C13000883
:101360000000002024000000F80E0008A013000870
:101370002400002004040000080F00080000000002
:101380000000000001000000000000000102030452
:101390000102030406070809020406080000000011
:04000005080000ED02
:00000001FF
