:020000040800F2
:100000002804002001010008090100080B01000874
:100010000D0100080F010008110100080000000098
:1000200000000000000000000000000013010008B4
:100030001501000800000000170100081901000860
:100040001B0100081B0100081B0100081B01000820
:100050001B0100081B0100081B0100081B01000810
:100060001B0100081B0100081B0100081B01000800
:100070001B0100081B0100081B0100081B010008F0
:100080001B0100081B0100081B0100081B010008E0
:100090001B0100081B0100081B0100081B010008D0
:1000A0001B0100081B0100081B0100081B010008C0
:1000B0001B0100081B0100081B0100081B010008B0
:1000C0001B0100081B0100081B0100081B010008A0
:1000D0001B0100081B0100081B0100081B01000890
:1000E0001B0100081B0100081B010008DFF80CD0F1
:1000F00000F02AF800480047F10600082804002014
:100100000648804706480047FEE7FEE7FEE7FEE7B1
:10011000FEE7FEE7FEE7FEE7FEE7FEE781040008F4
:10012000ED000008D2B201E000F8012B491EFBD21D
:1001300070470022F6E710B513460A4604461946F2
:10014000FFF7F0FF204610BD064C074D06E0E068C3
:1001500040F0010394E8070098471034AC42F6D30E
:10016000FFF7C8FF54070008740700082DE9F041A5
:10017000024600250026002000230024002791F8D5
:1001800003C00CF00F0591F803C00CF0100CBCF18B
:10019000000F03D091F802C04CEA050591F800C0A9
:1001A000BCF1000F31D0146800202BE04FF0010C9F
:1001B0000CFA00F3B1F800C00CEA03069E4220D10D
:1001C00083004FF00F0C0CFA03F7BC4305FA03FC55
:1001D0004CEA040491F803C0BCF1280F06D14FF09B
:1001E000010C0CFA00FCC2F814C00AE091F803C03C
:1001F000BCF1480F05D14FF0010C0CFA00FCC2F81D
:1002000010C0401C0828D1D31460B1F800C0BCF164
:10021000FF0F34DD546800202EE000F1080C4FF091
:10022000010808FA0CF3B1F800C00CEA03069E427C
:1002300021D183004FF00F0C0CFA03F7BC4305FAF1
:1002400003FC4CEA040491F803C0BCF1280F05D16B
:1002500000F1080C08FA0CF8C2F8148091F803C0F9
:10026000BCF1480F07D100F1080C4FF0010808FA63
:100270000CF8C2F81080401C0828CED35460BDE8AA
:10028000F081000029B1064AD2690243044BDA61C9
:1002900004E0034AD2698243014BDA6170470000EF
:1002A0000010024029B1064A92690243044B9A6148
:1002B00004E0034A92698243014B9A61704700004F
:1002C0000010024030B500210022002400232D4DF3
:1002D0006D6805F00C0121B1042905D0082923D14E
:1002E00005E0294D056022E0274D05601FE0254D02
:1002F0006D6805F47012234D6D6805F48034022595
:1003000005EB92421CB9214D554305600BE01D4D94
:100310006D6805F400351DB11C4D5543056002E0C4
:10032000194D5543056002E0174D056000BF00BF41
:10033000144D6D6805F0F0010909154D6B5C0568F9
:10034000DD4045600F4D6D6805F4E061090A104D10
:100350006B5C4568DD4085600A4D6D6805F4605151
:10036000C90A0B4D6B5C4568DD40C560054D6D6885
:1003700005F44041890B074D6B5CC568B5FBF3F58F
:10038000056130BD0010024000127A0000093D00F6
:10039000040000201400002010B500F001F810BD8A
:1003A0000CB50020019000903348006840F4803084
:1003B0003149086000BF3048006800F40030009008
:1003C0000198401C0190009818B90198B0F5A06FF1
:1003D000F1D12948006800F4003010B101200090EC
:1003E00001E0002000900098012843D123480068D4
:1003F00040F01000214908600846006820F0030022
:1004000008600846006840F0020008601A4840682A
:10041000194948600846406848600846406840F40A
:10042000806048600846406820F47C1048600846B8
:10043000406840F4E81048600846006840F080706A
:10044000086000BF0C48006800F000700028F9D078
:100450000948406820F003000749486008464068A2
:1004600040F00200486000BF0348406800F00C0004
:100470000828F9D10CBD0000001002400020024005
:1004800010B51348006840F00100114908600846A3
:100490004068104908400E494860084600680E4907
:1004A00008400B4908600846006820F48020086076
:1004B0000846406820F4FE0048604FF41F00886042
:1004C000FFF76AFF4FF000600449086010BD0000AC
:1004D000001002400000FFF8FFFFF6FE08ED00E00C
:1004E00000B585B001210420FFF7DCFE0420ADF843
:1004F000100018208DF8130002208DF8120004A9B6
:100500001648FFF733FE0820ADF8100004208DF8E0
:10051000130002208DF8120004A91048FFF726FEF0
:1005200001214804FFF7AEFE4FF4E13000900020B7
:10053000ADF80C000C20ADF80A000020ADF8080062
:10054000ADF80600ADF804006946054800F04CF827
:100550000121034800F02FF805B000BD000801405C
:100560000044004010B500BF2021044800F02FF8DF
:100570000028F9D0014800F0A3F810BD0044004065
:1005800010B5044600BF8021044800F020F8002880
:10059000F9D02146014800F098F810BD0044004011
:1005A00010B5044603E014F8010BFFF7E9FF2078CB
:1005B0000028F8D110BD21B1828942F40052828115
:1005C00004E082894DF6FF731A408281704702462B
:1005D0000020B1F5007F00D100BF13880B400BB1A4
:1005E000012000E0002070472DE9F04786B0054665
:1005F0000E460024A24600BFA1460027B08900B1E4
:1006000000BF2F462C8A4CF6FF700440F08804434C
:100610002C82AC894EF6F3100440B088318908432F
:10062000718908430443AC81AC8A4FF6FF40044013
:10063000B0890443AC8201A8FFF744FE1F488742FB
:1006400002D1DDF810A001E0DDF80CA0A88900F4CB
:10065000004040B10AEBCA0000EB0A1031684900C3
:10066000B0FBF1F807E00AEBCA0000EB0A103168B2
:100670008900B0FBF1F86420B8FBF0F00401200918
:10068000642101FB1089A88900F4004040B13220A8
:1006900000EBC900B0FBF1F000F00700044308E0F4
:1006A000322000EB09106421B0FBF1F000F00F00E4
:1006B00004432C8106B0BDE8F087000000380140FB
:1006C00001468888C0F308007047C1F308028280A1
:1006D000704702E008C8121F08C1002AFAD170470B
:1006E0007047002001E001C1121F002AFBD17047B2
:1006F000FFF7F6FE28E0FFF735FFC4B20A2C15D04D
:10070000124800680F2809DA114810490968445452
:100710000E480068401C0D49086014E00C480B4965
:10072000096844540020094908600CE00848FFF7B4
:1007300037FF0A20FFF724FF10210548FFF7F9FCD7
:1007400000200249086000BFD5E70000000000203B
:1007500018000020740700080000002018000000A6
:10076000D20600088C0700081800002010040000C2
:10077000E20600080000000000000000010203047F
:0C07800001020304060708090204060831
:04000005080000ED02
:00000001FF
