:020000040800F2
:100000007004002001010008090100080B0100082C
:100010000D0100080F010008110100080000000098
:1000200000000000000000000000000013010008B4
:100030001501000800000000170100081901000860
:100040001B0100081B0100081B0100083108000803
:100050001B0100081B0100081B0100081B01000810
:100060001B0100081B0100081B0100081B01000800
:100070001B0100081B0100081B0100081B010008F0
:100080001B0100081B0100081B0100081B010008E0
:100090001B0100081B0100081B0100081B010008D0
:1000A0001B0100081B0100081B0100081B010008C0
:1000B0001B0100081B0100081B0100081B010008B0
:1000C0001B0100081B0100081B0100081B010008A0
:1000D0001B0100081B0100081B0100081B01000890
:1000E0001B0100081B0100081B010008DFF80CD0F1
:1000F00000F07EF8004800477111000870040020ED
:100100000648804706480047FEE7FEE7FEE7FEE7B1
:10011000FEE7FEE7FEE7FEE7FEE7FEE7D90B000895
:10012000ED0000082DE9F05F0546002092469B4651
:1001300088460646814640241BE0284641464746FD
:10014000224600F045F853465A46C01A914110D352
:1001500011461846224600F02CF82D1A67EB0108CC
:100160004F4622460120002100F023F817EB00093A
:100170004E41201EA4F10104DFDC484631462A46E8
:100180004346BDE8F09F30B50B46014600202022D3
:10019000012409E021FA02F59D4205D303FA02F594
:1001A000491B04FA02F52844151EA2F10102F1DCF4
:1001B00030BD202A04DB203A00FA02F1002070470B
:1001C0009140C2F1200320FA03F319439040704795
:1001D000202A04DB203A21FA02F00021704721FA9C
:1001E00002F3D040C2F12002914008431946704703
:1001F000064C074D06E0E06840F0010394E8070074
:1002000098471034AC42F6D3FFF774FFB4150008DA
:10021000D415000810B5012000F026FA002000F0E7
:1002200023FA10BD01460020044A10884FF67F4291
:1002300010400843014A1080704700002C6C0040B9
:1002400008B501460020009003480090009808443B
:1002500000900098008808BD006C004001490860CB
:100260007047000000860D4208B500220092044A43
:100270000092009A02440092009A116008BD0000AA
:10028000006C004070B501464D79C5F10E050C2695
:1002900095FBF6F5EAB2CD8805F59655AD1AABB2E9
:1002A0004D7906FB0255ED1EECB200BF04EB0415C0
:1002B00005EBC505AD1C052695FBF6F5642593FBFE
:1002C000F5F54FF4C87593FBF5F500BF084D68438D
:1002D0000D78C5EB4516C6EB052500EB05104D78EE
:1002E000C5EB051500EB85008D78284470BD000036
:1002F000805101002DE9F041024600250026002032
:1003000000230024002791F803C00CF00F0591F89A
:1003100003C00CF0100CBCF1000F03D091F802C028
:100320004CEA050591F800C0BCF1000F31D014680B
:1003300000202BE04FF0010C0CFA00F3B1F800C0E4
:100340000CEA03069E4220D183004FF00F0C0CFAFA
:1003500003F7BC4305FA03FC4CEA040491F803C01C
:10036000BCF1280F06D14FF0010C0CFA00FCC2F8CA
:1003700014C00AE091F803C0BCF1480F05D14FF05A
:10038000010C0CFA00FCC2F810C0401C0828D1D3A4
:100390001460B1F800C0BCF1FF0F34DD54680020D8
:1003A0002EE000F1080C4FF0010808FA0CF3B1F848
:1003B00000C00CEA03069E4221D183004FF00F0CCF
:1003C0000CFA03F7BC4305FA03FC4CEA040491F869
:1003D00003C0BCF1280F05D100F1080C08FA0CF895
:1003E000C2F8148091F803C0BCF1480F07D100F1A6
:1003F000080C4FF0010808FA0CF8C2F81080401CF5
:100400000828CED35460BDE8F08100002DE9F04FFC
:100410008DB006460C4600BF00BF4AF6C00030440F
:100420004AF6C001B0FBF1F04F490844401C0021DE
:10043000CDE90001DDE900015FEA51084FEA30072C
:1004400035464FF03C00B5FBF0F9C9EB0910A5EBC0
:100450008000C0B202904D464FF03C00B5FBF0F971
:10046000C9EB0910A5EB8000C0B203904D464FF0D8
:100470001800B5FBF0F909EB4900A5EBC000C0B2CC
:1004800004904FF007024FF0000338464146FFF753
:1004900049FED0B2069047F62C5017EB000B4FEAFE
:1004A0008B0000F103003149B0FBF1F00C900C9887
:1004B00000FB01F0ABEB90000B900B984FEA800033
:1004C00000F1030040F2B551B0FBF1F00A900A9838
:1004D00000FB01F00B99A1EB90000990099800EB4B
:1004E000800000F102004FF09901B0FBF1FA0AEB35
:1004F0000A1000EBC00000F102004FF00501B0FB54
:10050000F1F10998A0EB010000F10100C0B20590E3
:100510004FF00A00BAFBF0F10AF103004FF00C02B1
:1005200002FB1100C0B207904FF00A00BAFBF0F2D4
:100530004FF064030C990A9803FB0100A0F5965054
:10054000104480B208900898E08007986071059880
:10055000E0700698207104982070039860700298EB
:10056000A0700DB0BDE8F08F167B4A00B13A0200D2
:1005700008B54FF4C06000F047F803208DF8000084
:1005800000208DF801008DF8020001208DF8030095
:10059000684600F001F808BD70B5002100230F2265
:1005A000C47804B3154C246804F4E064C4F5E06432
:1005B000210AC1F10403CA40447804FA03F18478A3
:1005C0001440214309010E4C0678A155047804F02B
:1005D0001F050124AC4005786D11AD0005F1E02543
:1005E000C5F8004109E0047804F01F050124AC407F
:1005F000044D0678761145F8264070BD0CED00E0FC
:1006000000E400E080E100E002490143024A116099
:10061000704700000000FA050CED00E00149086297
:100620007047000000000E4229B1064AD269024319
:10063000044BDA6104E0034AD2698243014BDA6178
:10064000704700000010024029B1064A9269024337
:10065000044B9A6104E0034A92698243014B9A6118
:100660007047000000100240014908607047000018
:10067000400442420348406A40F0807001494862A9
:10068000704700000010024030B500210022002415
:1006900000232D4D6D6805F00C0121B1042905D012
:1006A000082923D105E0294D056022E0274D05608A
:1006B0001FE0254D6D6805F47012234D6D6805F43B
:1006C0008034022505EB92421CB9214D554305604B
:1006D0000BE01D4D6D6805F400351DB11C4D5543F3
:1006E000056002E0194D5543056002E0174D0560B5
:1006F00000BF00BF144D6D6805F0F0010909154DEC
:100700006B5C0568DD4045600F4D6D6805F4E06188
:10071000090A104D6B5C4568DD4085600A4D6D68C7
:1007200005F46051C90A0B4D6B5C4568DD40C5603E
:10073000054D6D6805F44041890B074D6B5CC5683C
:10074000B5FBF3F5056130BD0010024000127A00E0
:1007500000093D00550000206500002010B501464D
:100760000022002300204A11012A02D1094C2368EB
:1007700006E0022A02D1074C236A01E0054C636AB5
:1007800001F01F02012494401C400CB1012000E044
:10079000002010BD001002400149086070470000B1
:1007A0008004424201490860704700003C04424214
:1007B0000249096A0143014A116270470010024070
:1007C000024909888143014A11807047042800408A
:1007D0000348008840F0100001490880704700007D
:1007E00004280040034800884FF6EF710840014993
:1007F0000880704704280040002103480188001F3A
:10080000008841EA004070471C2800400146002053
:10081000064A12880A40D0B2044A121F12880A40BF
:1008200012B108B1012000E0002070470428004008
:1008300010B50120FFF7EAFF20B10120FFF7C0FF4C
:1008400000F03AF910BD000029B1064A12880243AF
:10085000044B1A8004E0034A12888243014B1A8039
:10086000704700000028004010B501214FF0C05033
:10087000FFF7DAFE0120FFF7D1FE2A4800780128B1
:100880000DD029A000F0A0FAFFF7C4FC0120FFF76B
:10089000EBFE0020FFF7E8FE29A000F095FA01200A
:1008A000FFF77AFF31A000F08FFA00BF6120FFF759
:1008B00055FF0028FAD04FF40070FFF779FF33A0FE
:1008C00000F082FA0120FFF76DFF39A000F07CFAFA
:1008D00000F0F2F83DA000F077FA00F0F7F800F031
:1008E000EBF801210846FFF7AFFF41A000F06CFADA
:1008F00001210220FFF7A8FF49A000F065FA00F0EF
:10090000DBF849F63F4000F0C7F851A000F05CFA70
:1009100000F0D2F80020FFF7A1FC4FF44070FFF781
:1009200081FC10BD5400002020205265696E69636F
:10093000696F2064656C20525443200D0A0000004A
:10094000202020202D20526573657465616E646FD0
:10095000206261636B7570206465207265676973DE
:1009600074726F73205254430D0A0000202020201F
:100970002D20486162696C6974616E646F206675D0
:10098000656E7465204C5349200D0A0020202020FC
:100990002D20486162696C6974616E646F204C53EC
:1009A0004920656E20525443434C4B200D0A0000F1
:1009B000202020202D20486162696C6974616E647A
:1009C0006F20525443434C4B0D0A0000202020203E
:1009D0002D204573706572616E646F2073696E635C
:1009E000726F6E697A6163696F6E200D0A00000094
:1009F000202020202D20486162696C6974616E643A
:100A00006F20496E74657272757063696F6E2067CE
:100A1000656E6572616C20525443200D0A0000001F
:100A2000202020202D20486162696C6974616E6409
:100A30006F20496E74657272757063696F6E2064A1
:100A40006520416C61726D6120525443200D0A0093
:100A5000202020202D20436F6E66696775726164C7
:100A60006F205072657363616C6572204C5349202E
:100A7000283430206B487A29200D0A0000B5024640
:100A8000FFF7A6FE100C03490880091D0A80FFF736
:100A9000A9FE00BD1828004000B50246FFF798FEE9
:100AA000C2F3034003490880091D0A80FFF79AFE3C
:100AB00000BD00000828004000BF0348008800F087
:100AC00020000028F9D0704704280040074800881B
:100AD0004FF6F77108400549088000BF03480088B9
:100AE00000F008000028F9D07047000004280040FA
:100AF00010B500F001F810BD0CB500200190009079
:100B00003348006840F480303149086000BF304805
:100B1000006800F4003000900198401C019000989B
:100B200018B90198B0F5A06FF1D12948006800F418
:100B3000003010B10120009001E0002000900098EA
:100B4000012843D12348006840F010002149086083
:100B50000846006820F0030008600846006840F07E
:100B6000020008601A484068194948600846406811
:100B700048600846406840F4806048600846406825
:100B800020F47C1048600846406840F4E810486053
:100B90000846006840F08070086000BF0C4800689C
:100BA00000F000700028F9D00948406820F00300E8
:100BB000074948600846406840F00200486000BFAE
:100BC0000348406800F00C000828F9D10CBD000073
:100BD000001002400020024010B51348006840F0A9
:100BE00001001149086008464068104908400E4954
:100BF0004860084600680E4908400B4908600846EE
:100C0000006820F4802008600846406820F4FE0058
:100C100048604FF41F008860FFF76AFF4FF00060E4
:100C20000449086010BD0000001002400000FFF8F9
:100C3000FFFFF6FE08ED00E000B585B0012144F2AB
:100C40000400FFF701FD4FF40070ADF8100018200C
:100C50008DF8130003208DF8120004A91348FFF744
:100C600049FB4FF48060ADF8100004208DF81300AC
:100C700004A90E48FFF73EFB4FF4E130009000203E
:100C8000ADF80400ADF80600ADF80800ADF80C00B2
:100C90000C20ADF80A006946054800F025F801214E
:100CA000034800F007F805B000BD0000000801404F
:100CB0000038014021B1828942F40052828104E06F
:100CC00082894DF6FF731A408281704702460020E8
:100CD000B1F5007F00D100BF13880B400BB101209C
:100CE00000E00020704700002DE9F04786B005467F
:100CF0000E460024A24600BFA1460027B08900B1DD
:100D000000BF2F462C8A4CF6FF700440F088044345
:100D10002C82AC894EF6F3100440B0883189084328
:100D2000718908430443AC81AC8A4FF6FF4004400C
:100D3000B0890443AC8201A8FFF7A6FC1F48874294
:100D400002D1DDF810A001E0DDF80CA0A88900F4C4
:100D5000004040B10AEBCA0000EB0A1031684900BC
:100D6000B0FBF1F807E00AEBCA0000EB0A103168AB
:100D70008900B0FBF1F86420B8FBF0F00401200911
:100D8000642101FB1089A88900F4004040B13220A1
:100D900000EBC900B0FBF1F000F00700044308E0ED
:100DA000322000EB09106421B0FBF1F000F00F00DD
:100DB00004432C8106B0BDE8F087000000380140F4
:100DC000C1F30802828070470FB4054B10B503A928
:100DD000044A029800F018F810BC5DF814FB0000FB
:100DE0004D1100086C00002002E008C8121F08C165
:100DF000002AFAD170477047002001E001C1121F9C
:100E0000002AFBD1704700002DE9FF4F8BB08846C8
:100E10000546002606E025280BD0DDE90D12904797
:100E20006D1C761C28780028F5D10FB03046BDE83F
:100E3000F08F0024A146A2460122AE4900E00443FF
:100E400015F8013F203B02FA03F00842F7D1287859
:100E50002A2810D06FF02F022878A0F1300109293C
:100E600015D809EB890102EB410144F0020400EBC3
:100E700001096D1CF0E758F8041B5FEA010903D56E
:100E800044F40054C9F1000944F002046D1C2878B0
:100E90002E2817D115F8010F44F004042A280ED08B
:100EA0006FF02F022878A0F1300109290AD80AEB47
:100EB0008A0102EB410100EB010A6D1CF2E758F8D0
:100EC00004AB6D1C28786C280FD006DC4C2817D09A
:100ED00068280DD06A2814D104E0742810D07A282C
:100EE0000FD10DE044F400140AE044F4801401E052
:100EF00044F440146978814202D104F580146D1CD9
:100F00006D1C2878692865D006DC00288DD0632800
:100F100027D0642806D15DE06E2808D073282AD037
:100F2000752877D0DDE90D129047761CE0E0C4F318
:100F30000250022809D003280DD0D8F80010042848
:100F40000DD00E6008F10408D2E0D8F80010F217B6
:100F5000C1E90062F6E7D8F800100E80F2E70E70E3
:100F6000F0E718F8041B8DF8001000208DF8010040
:100F7000EB46012003E058F804BB4FF0FF30610757
:100F80004FF0000701D40AE07F1C57450DDA874275
:100F9000FADB1BF807100029F6D106E07F1C874218
:100FA000FCDB1BF807100029F8D1DDE90D23A9EBC4
:100FB00007008146214600F0B1F83044C61904E02C
:100FC000DDE90D121BF8010B90477F1EF8D2214678
:100FD000484688E058F8040BC4F302514FF00A0B5E
:100FE000032900D100B2042900D140B2002802DA5E
:100FF00040422D2102E0210505D52B218DF824103A
:10100000012104E006E0E10710D02021F6E708AF57
:10101000089113E058F8040BC4F302514FF00A0B87
:10102000032900D180B2042900D1C0B20021EEE72B
:101030005946FFF7A8F8303107F8011D0028F7D10D
:10104000ADEB070000F1200B600702D524F48034DB
:1010500001E04FF0010ADA4502DDAAEB0B0000E0E7
:101060000020824600EB0B0108980144A9EB010027
:101070000A90E00306D4DDE90D2321460A9800F02A
:101080004DF806444FF0000908E009A911F80900DD
:10109000DDE90D12904709F10109761C089989458F
:1010A000F3DBE0030CD5DDE90D2321460A9800F0BF
:1010B00035F8064404E0DDE90D1230209047761C37
:1010C000BAF10001AAF1010AF5DC05E0DDE90D1233
:1010D00017F8010B9047761CBBF10001ABF1010B37
:1010E000F4DC0A982146DDE90D2300F005F80644FA
:1010F0006D1C97E6092801002DE9F0410446002502
:101100001E461746880404D405E039462020B0471F
:101110006D1C641EF9D52846BDE8F0812DE9F0412B
:10112000044600251E469046C80301D5302700E03E
:101130002027880404D505E041463846B0476D1C99
:10114000641EF9D52846BDE8F081000070B504465C
:101150000D46E1B20548FFF733FE00BF40210348CA
:10116000FFF7B4FD0128F9D1204670BD00380140D9
:101170000EB50024FFF760FDFFF7FAF945A0FFF771
:1011800023FE54A0FFF720FE61A0FFF71DFE042000
:10119000FFF756F84AF2A55188422AD06BA0FFF714
:1011A00013FE72A0FFF710FE79A0FFF70DFE0020DE
:1011B00080490870FFF758FB04207F49C87003205E
:1011C000487140F2E270C880062008700320487021
:1011D0000A2088700846FFF755F80546FFF74EFCD1
:1011E00076A0FFF7F1FD4AF2A5510420FFF73CF885
:1011F00019E07B20FFF7B2FA18B17AA0FFF7E4FDFF
:1012000006E07A20FFF7AAFA10B17FA0FFF7DCFD15
:1012100088A0FFF7D9FD94A0FFF7D6FD012065490E
:101220000870FFF721FBFFF725FA31E0FFF7E4FA3A
:10123000001B0A282CD9FFF7DFFA0446214694A0A8
:10124000FFF7C2FD5C492046FFF7E0F85A48807876
:1012500059494978584A1278CDE9002102905648F8
:10126000C3884279C17893A0FFF7AEFD5248C08889
:10127000009051484079401E9A4D55F820304E4814
:10128000C2780079984D55F8201098A0FFF79CFD82
:10129000CCE700000D0A203D3D3D3D3D3D3D3D3D3F
:1012A0003D3D3D3D3D3D3D3D3D3D3D3D3D3D3D3D6E
:1012B0003D3D3D3D3D3D3D3D3D3D3D3D3D3D3D3D5E
:1012C0003D3D3D3D3D3D3D3D3D3D3D3D3D3D0D0AB1
:1012D00000000000202050524F4752414D41204411
:1012E000454D4F204445205554494C495A414349A6
:1012F0004F4E2044454C2043414C454E44415249B9
:101300004F2044454C2052544320200D0A00000039
:10131000203D3D3D3D3D3D3D3D3D3D3D3D3D3D3D1A
:101320003D3D3D3D3D3D3D3D3D3D3D3D3D3D3D3DED
:101330003D3D3D3D3D3D3D3D3D3D3D3D3D3D3D3DDD
:101340003D3D3D3D3D3D3D3D0D0A00000D0A202047
:10135000525443204E4F20434F4E46494755524129
:10136000444F2E2E2E2E0D0A000000000D0A2020C4
:101370005265696E696369616E646F205254432CD3
:10138000206573706572652E2E2E2E0D0A000000EA
:101390000D0A2020436F6E6669677572616E646F17
:1013A000205254432C206573706572652E2E2E2EAC
:1013B0000D0A000054000020000000200D0A20202B
:1013C0002D2D2D2052544320434F4E464947555210
:1013D00041444F202D2D2D20212121205C6E0D0A0E
:1013E000000000000D0A2020556E205265696E69CC
:1013F00063696F2061206F6375727269646F2E2E4E
:101400002E2E0D0A0D0A00000D0A2020556E2052C6
:10141000657365742065787465726E6F20736520DE
:10142000612064657465637461646F2E2E2E2E0DC9
:101430000A0D0A0020204E4F206573206E656365FB
:10144000736172696F20636F6E666967757261722E
:10145000206465206E7565766F20656C205254435C
:101460002E2E2E2E0D0A000020202E2E2E20496E0C
:10147000696369616E646F20656C205254432C204F
:10148000657370657265202E2E2E0D0A0D0A000000
:101490000D0A0D0A2020436F6E7461646F72207311
:1014A0006567756E646F7320525443203A2025643B
:1014B0000D0A0000202046656368613A202530321D
:1014C000642F253032642F2530346420486F7261D8
:1014D0003A20253032643A253032643A253032647D
:1014E0000D0A00002400002008000020202044698C
:1014F000612025732C2025642064652025732064D9
:10150000652025303464200D0A00000044696369B9
:10151000656D6272650000004E6F7669656D62727E
:10152000650000004F6374756272650053657074E6
:1015300069656D7072650000416272696C0000003F
:1015400053616261646F0000446F6D696E676F0084
:101550004A756C696F0000004A756E696F00000083
:10156000456E65726F0000004665627265726F00BD
:1015700041676F73746F00004D61796F0000000068
:101580004D61727A6F0000004D696572636F6C6522
:1015900073000000566965726E6573004C756E6568
:1015A000730000004D617274657300004A756576C2
:1015B00065730000D41500080000002070000000D2
:1015C000E80D000844160008700000200004000028
:1015D000F80D000800000000000000009C15000845
:1015E000A415000888150008AC150008941500081B
:1015F0004015000848150008601500086815000827
:1016000080150008381500087815000858150008DE
:1016100050150008701500082C1500082415000846
:10162000181500080C150008000000000001020356
:10163000040102030406070809020406080000006A
:0416400000000000A6
:04000005080000ED02
:00000001FF
