:020000040800F2
:100000001804002001010008090100080B01000884
:100010000D0100080F010008110100080000000098
:1000200000000000000000000000000013010008B4
:10003000150100080000000017010008F90400087D
:10004000550600081B0100081B0100081B010008E1
:100050001B0100081B0100081B0100081B01000810
:100060001B0100081B0100081B0100081B01000800
:100070001B0100081B0100081B0100081B010008F0
:100080001B0100081B0100081B0100081B010008E0
:100090001B0100081B0100081B0100081B010008D0
:1000A0001B0100081B0100081B0100081B010008C0
:1000B0001B0100081B0100081B0100081B010008B0
:1000C0001B0100081B0100081B0100081B010008A0
:1000D0001B0100081B0100081B0100081B01000890
:1000E0001B0100081B0100081B010008DFF80CD0F1
:1000F00000F018F800480047E30600081804002044
:100100000648804706480047FEE7FEE7FEE7FEE7B1
:10011000FEE7FEE7FEE7FEE7FEE7FEE7B5050008BF
:10012000ED000008064C074D06E0E06840F00103D2
:1001300094E8070098471034AC42F6D3FFF7DAFF93
:10014000480700086807000870B500F0E1F9134897
:100150000068134AB0FBF2F1481EB0F1807F00D373
:100160001BE0481E4FF0E022506150170F2200287C
:1001700004DB13071C0E0B4B1C5406E013071D0E6B
:10018000094B00F00F04241F1D5500BF00204FF045
:10019000E02290610720106100BF70BD04000020C4
:1001A00040420F0000E400E018ED00E000B5024618
:1001B00002E0642000F006F8101EA2F10102F8D15E
:1001C00000BD00000349086000BF0249096800291A
:1001D000FBD17047000000202DE9F04102460025C8
:1001E0000026002000230024002791F803C00CF013
:1001F0000F0591F803C00CF0100CBCF1000F03D0F8
:1002000091F802C04CEA050591F800C0BCF1000F5E
:1002100031D0146800202BE04FF0010C0CFA00F3F1
:10022000B1F800C00CEA03069E4220D183004FF0D3
:100230000F0C0CFA03F7BC4305FA03FC4CEA040468
:1002400091F803C0BCF1280F06D14FF0010C0CFA55
:1002500000FCC2F814C00AE091F803C0BCF1480FDA
:1002600005D14FF0010C0CFA00FCC2F810C0401C84
:100270000828D1D31460B1F800C0BCF1FF0F34DD01
:10028000546800202EE000F1080C4FF0010808FA35
:100290000CF3B1F800C00CEA03069E4221D18300A2
:1002A0004FF00F0C0CFA03F7BC4305FA03FC4CEAC1
:1002B000040491F803C0BCF1280F05D100F1080C2B
:1002C00008FA0CF8C2F8148091F803C0BCF1480F8A
:1002D00007D100F1080C4FF0010808FA0CF8C2F839
:1002E0001080401C0828CED35460BDE8F081016125
:1002F0007047000008B50121102000F079F84FF494
:100300000050ADF8000003208DF8020010208DF899
:10031000030069460448FFF75FFF4FF400510248AD
:10032000FFF7E5FF08BD00000010014070B5002197
:1003300000230F22C47804B3154C246804F4E0644D
:10034000C4F5E064210AC1F10403CA40447804FA08
:1003500003F184781440214309010E4C0678A1551D
:10036000047804F01F050124AC4005786D11AD0040
:1003700005F1E025C5F8004109E0047804F01F0507
:100380000124AC40044D0678761145F8264070BD36
:100390000CED00E000E400E080E100E002490143F0
:1003A000024A1160704700000000FA050CED00E001
:1003B00029B1064AD2690243044BDA6104E0034AD8
:1003C000D2698243014BDA6170470000001002409D
:1003D00029B1064A12690243044B1A6104E0034A38
:1003E00012698243014B1A617047000000100240FD
:1003F00029B1064A92690243044B9A6104E0034A18
:1004000092698243014B9A617047000000100240DC
:1004100010B500F001F810BD0CB50020019000905F
:100420003348006840F480303149086000BF3048EC
:10043000006800F4003000900198401C0190009882
:1004400018B90198B0F5A06FF1D12948006800F4FF
:10045000003010B10120009001E0002000900098D1
:10046000012843D12348006840F01000214908606A
:100470000846006820F0030008600846006840F065
:10048000020008601A4840681949486008464068F8
:1004900048600846406840F480604860084640680C
:1004A00020F47C1048600846406840F4E81048603A
:1004B0000846006840F08070086000BF0C48006883
:1004C00000F000700028F9D00948406820F00300CF
:1004D000074948600846406840F00200486000BF95
:1004E0000348406800F00C000828F9D10CBD00005A
:1004F00000100240002002400448006820B1034878
:100500000068401E0149086070470000000000209C
:1005100010B5002100200022214B5B6803F00C0184
:1005200021B1042906D0082928D107E01D4B1E4C13
:10053000236027E01B4B1C4C236023E0184B5B68B7
:1005400003F47010164B5B6803F48032022303EB54
:10055000904022B9154B4343134C23600DE0104BE0
:100560005B6803F4003323B1104B43430E4C23600C
:1005700003E00C4B43430C4C236003E0094B0A4C53
:10058000236000BF00BF064B5B68C3F30313084C36
:10059000E15C054B1B68CB40034C236010BD0000A1
:1005A0000010024000127A000400002000093D0003
:1005B0000800002010B51348006840F00100114900
:1005C000086008464068104908400E4948600846DF
:1005D00000680E4908400B4908600846006820F48E
:1005E000802008600846406820F4FE0048604FF410
:1005F0001F008860FFF70CFF4FF00060044908609F
:1006000010BD0000001002400000FFF8FFFFF6FEE2
:1006100008ED00E00020014908607047082C004008
:1006200010B50121C802FFF7D3FE00214FF400608E
:10063000FFF7CEFE10BD000040F08001014A1160BE
:1006400070470000002C00400120014908607047FD
:10065000A480054210B5FFF7DDFF642000F00AF822
:100660000348C06880F400500149C86010BD000014
:100670000010014000F07F01014A11607047000046
:10068000002C00400021044A126822F4C07101438A
:10069000014A116070470000042C004008B5002199
:1006A00000910749096821F07F01009100F07F0166
:1006B000009A11430091024A0099116008BD0000A0
:1006C000042C004002E008C8121F08C1002AFAD119
:1006D00070477047002001E001C1121F002AFBD1C2
:1006E000704708B5FFF706FEFFF72EFD0121C8028F
:1006F000FFF75EFEFFF794FF4FF4C070FFF7C2FFF5
:100700005020FFF7CBFF7F20FFF796FFFFF782FF18
:10071000FFF79AFF4FF4A060FFF740FE00208DF82E
:1007200000008DF801008DF8020001208DF8030013
:100730006846FFF7FBFD06E04FF4FA70FFF736FD61
:100740006420FFF797FFF7E7680700080000002024
:1007500018000000C40600088007000818000020E8
:1007600000040000D40600080000000000A24A04B3
:100770000000000000000000010203040607080951
:04000005080000ED02
:00000001FF
