:020000040800F2
:100000002804002001010008090100080B01000874
:100010000D0100080F010008110100080000000098
:1000200000000000000000000000000013010008B4
:100030001501000800000000170100081901000860
:100040001B0100081B0100081B0100081B01000820
:100050001B0100081B0100081B0100081B01000810
:100060001B0100081B0100081B0100081B01000800
:100070001B0100081B0100081B0100081B010008F0
:100080001B0100081B0100081B0100081B010008E0
:100090001B0100081B0100081B0100081B010008D0
:1000A0001B0100081B0100081B0100081B010008C0
:1000B0001B0100081B0100081B0100081B010008B0
:1000C0001B0100081B0100081B0100081B010008A0
:1000D0001B0100081B0100081B0100081B01000890
:1000E0001B0100081B0100081B010008DFF80CD0F1
:1000F00000F00CFB004800473D1F000828040020CA
:100100000648804706480047FEE7FEE7FEE7FEE7B1
:10011000FEE7FEE7FEE7FEE7FEE7FEE7550F000815
:10012000ED0000082DE9FE4F804681EA0300C00F74
:100130000C46009021F0004123F00045B8EB02008E
:10014000A94105D24046214690461C460B46024630
:1001500023F00040104347D0270DC7F30A00C3F334
:100160000A510290401A019040286BDAC3F3130041
:1001700040F4801B0098924620B10023D2EB030A82
:1001800063EB0B0B01985946C0F14002504600F05A
:1001900069F906460D4650465946019A00F071F934
:1001A00010EB08006141002487EA115284EAE773EA
:1001B0001A4340D0009A62B3019A012A4FEA0752CB
:1001C00015DC001B61EB02014FF0004202EA07520E
:1001D000CDE90042001C41F5801132462B4600F06B
:1001E000A8F903B0BDE8F08F40462146F9E7001BAF
:1001F00061EB0201001C41F5801300185B412018DF
:10020000A2F5001747EB030140EAD570B6196D411E
:1002100011E06D084FEA360645EAC0754FEA07520D
:10022000001B61EB0201001C41F5801149084FEAF7
:1002300030000019514132462B4603B0BDE8F04F63
:1002400000F068B90098012240000023D0EB0202C0
:1002500063EBE073009821464FEAE074B8EB0000CE
:1002600061EB0401E9E783F000435BE781F00041C3
:1002700058E72DE9FE4F81EA030404F0004421F021
:10028000004100944FF0000B23F0004350EA0104BA
:100290005ED052EA03045BD0C3F30A54C1F30A559B
:1002A0002C44A4F2F3340194A0FB0254C1F31301D3
:1002B00041F48011C3F3130343F4801301FB0244A0
:1002C00000FB034E840A970A44EA815447EA8357A5
:1002D000A4FB076802958D0A05FB07854FEA932C5E
:1002E00004FB0C542705029D4FEA065847EA1637CF
:1002F000B5EB08056EEB070C870E920E47EA8117E7
:1003000042EA8312A7FB0201B6EB0B0164EB000487
:100310002B0D43EA0C335E1844EB1C50DA46514671
:10032000E7FB0201C5F313044FEA0B3343EA14530E
:100330004FEA0432019C43EA0603A4F10C04029440
:10034000009CCDE900B400F0F4F803B0BDE8F08FF4
:1003500000200146F9E70EB5C10F80EAE0700844BD
:10036000CA07002140F233438DE80E000A460B46CF
:1003700000F0DFF803B000BD00F0004230F00040B4
:100380000AD0C10D01F56071C0F3160042EA0151B7
:10039000C20840071143704700200146704701F032
:1003A000004330B421F0004150EA010206D00A0DAA
:1003B000A2F56072C1F31301002A02DC30BC0020F8
:1003C0007047440F44EAC104C100E01830BC00EBA0
:1003D000C25000F068B830B50B460146002020221C
:1003E000012409E021FA02F59D4205D303FA02F542
:1003F000491B04FA02F52844151EA2F10102F1DCA2
:1004000030BD2DE9F05F0546002092469B468846A8
:100410000646814640241BE0284641464746224680
:1004200000F086F953465A46C01A914110D311463E
:100430001846224600F016F82D1A67EB01084F46C1
:1004400022460120002100F00DF817EB00094E4173
:10045000201EA4F10104DFDC484631462A4643460B
:10046000BDE8F09F202A04DB203A00FA02F10020C8
:1004700070479140C2F1200320FA03F319439040E2
:100480007047202A06DBCB17203A41FA02F043EAF4
:10049000E07306E041FA02F3D040C2F1200291403D
:1004A0000843194670470029A8BF7047401C4900FF
:1004B00008BF20F00100704710B4B0FA80FC00FAC9
:1004C0000CF050EA010404BF10BC704749B1CCF1F4
:1004D000200421FA04F411FA0CF118BF0121214380
:1004E0000843A3EB0C01CB1D4FEA00614FEA10203B
:1004F00042BF002010BC704700EBC35010440029DD
:10050000A4BF10BC7047401C490008BF20F0010088
:1005100010BC704710B5141E73F1000408DA401CBB
:1005200041F1000192185B411A4301D120F0010012
:1005300010BD2DE9F04D92469B4611B1B1FA81F202
:1005400002E0B0FA80F220329046FFF78BFF0446BB
:100550000F4640EA0A0041EA0B0153465A46084357
:1005600013D0114653EA010019D0C8F14002504699
:1005700000F0DEF805460E46504659464246FFF763
:1005800071FF084305D0012004E020463946BDE84C
:10059000F08D0020054346EAE0762C4337430A9865
:1005A0006305E40AA0EB08000022FD0A44EA475470
:1005B0000A3002D500200146E9E70105101969411A
:1005C000DDE9084500196941BDE8F04DA2E72DE9D4
:1005D000F04D81EA030404F0004B21F0004514467D
:1005E0004FF0000A23F0004150EA050220D054EAFF
:1005F00001021DD0C5F30A570246C5F31303C1F328
:100600001300C1F30A5640F4801543F48013A7EB9E
:100610000608101BD64608F2FD3873EB050002D31E
:1006200008F1010801E092185B41B8F1000F03DA0C
:1006300000200146BDE8F08D00204FF480110646F1
:1006400084460EE0171B73EB050705D3121B63EB03
:10065000050306434CEA010C49084FEA30009218A2
:100660005B4150EA0107EDD152EA030012D082EA61
:10067000040083EA0501084305D0101BAB4106D2F4
:100680000122002306E000224FF0004302E06FF059
:10069000010253101AEB06004CEB085110EB0A0054
:1006A00041EB0B01BDE8F04DFFF734BFC1F30A5237
:1006B000C1F3130140F2FF3341F480119A4202DA90
:1006C00000200146704740F233439A42A2F233427F
:1006D00002DC524200F02CB8FFF7C4BE30B5041E55
:1006E00071F1000404DB4FF00044404264EB01016F
:1006F000141E73F1000405DB1C464FF00043524208
:1007000063EB0403994208BF904230BD064C074D8D
:1007100006E0E06840F0010394E8070098471034D1
:10072000AC42F6D3FFF7E6FC1021000830210008A8
:10073000202A04DB203A21FA02F00021704721FA36
:1007400002F3D040C2F1200291400843194670479D
:1007500070B521F0004303430CD0C1F30A550024C7
:10076000D5EB040564EB0403D617AD1AB34102DBE5
:100770000020014670BD201841EB025170BD0146BA
:1007800006E04FF47A7200E0521E002AFCD1491EA6
:100790000029F6D170472DE9F041024600250026D8
:1007A000002000230024002791F803C00CF00F055F
:1007B00091F803C00CF0100CBCF1000F03D091F8BD
:1007C00002C04CEA050591F800C0BCF1000F31D021
:1007D000146800202BE04FF0010C0CFA00F3B1F884
:1007E00000C00CEA03069E4220D183004FF00F0C9C
:1007F0000CFA03F7BC4305FA03FC4CEA040491F835
:1008000003C0BCF1280F06D14FF0010C0CFA00FC1C
:10081000C2F814C00AE091F803C0BCF1480F05D13A
:100820004FF0010C0CFA00FCC2F810C0401C082864
:10083000D1D31460B1F800C0BCF1FF0F34DD5468AF
:1008400000202EE000F1080C4FF0010808FA0CF32C
:10085000B1F800C00CEA03069E4221D183004FF09C
:100860000F0C0CFA03F7BC4305FA03FC4CEA040432
:1008700091F803C0BCF1280F05D100F1080C08FA6B
:100880000CF8C2F8148091F803C0BCF1480F07D1EE
:1008900000F1080C4FF0010808FA0CF8C2F81080BB
:1008A000401C0828CED35460BDE8F08110B500F09C
:1008B0003DF8702200211E2000F0DAF9A02201216B
:1008C0001E2000F0D5F9002202211E2000F0D0F9F0
:1008D00010BD21B1028842F48062028004E00288E7
:1008E0004FF6FF331A400280704770B5024600246D
:1008F000002500230020958A138B1B0445EA03067C
:1009000026F07F4404EA01068E4201D1012000E076
:10091000002070BD21B1028842F00102028004E093
:1009200002884FF6FE731A400280704700B585B00A
:100930000121082000F020FA0121880500F00CFABE
:100940004FF44060ADF8100003208DF812001C2019
:100950008DF8130004A91048FFF71DFF0020ADF823
:1009600004004BF6FF70ADF806004FF48060ADF860
:100970000A000020ADF808004FF48040ADF80C00EC
:10098000064800906946064800F042F801210448F4
:10099000FFF7C0FF05B000BD000C0140A0860100BC
:1009A0000058004021B1028842F48072028004E0C5
:1009B00002884FF6FF631A400280704721B1028817
:1009C00042F40072028004E002884FF6FF531A409E
:1009D000028070470CB5024600200023019300936B
:1009E00000920B0F019321F07F41019B1BB1009BF3
:1009F0001433009303E0090C009B18330093009B11
:100A00001B680B400BB1012000E000200CBD000072
:100A10002DE9F04385B004460D460026B146042773
:100A2000DFF8CC80A6884FF6C0700640684600F01C
:100A3000B3F9DDF808802F48B8FBF0F01FFA80F911
:100A400046EA0906A68020884FF6FE7108402080FD
:100A500000262949286888420CD828684000B8FB3D
:100A6000F0F087B2042F00DA04273E4309F10100B9
:100A7000208427E0E8884BF6FF71884206D1286879
:100A800000EB4000B8FBF0F087B209E0286800EB0B
:100A9000C00101EB0010B8FBF0F087B247F48047CB
:100AA000C7F30B0008B947F0010747F400400643BD
:100AB0004FF4967009FB00F04FF47A7190FBF1F05F
:100AC000401C2084A683208840F0010020802688D6
:100AD0004FF6F5300640A88869890843064326800A
:100AE000A88929890843208105B0BDE8F08300006A
:100AF00000127A0040420F00A08601000146088AD9
:100B0000C0B2704712B141F0010102E04FF6FE732E
:100B100019400182704701827047000070B5054698
:100B20000C46224629460B48FFF7ECFF3CB900BFB4
:100B300009490848FFF7D9FE0028F9D008E0012C40
:100B400006D100BF05490348FFF7CFFE0028F9D0C2
:100B500070BD000000580040820007000200030042
:100B600010B501210648FFF7B4FE00BF054904484F
:100B7000FFF7BBFE0028F9D00148FFF7BFFF10BD0B
:100B8000005800404000030010B500210648FFF760
:100B9000A0FE00BF05490448FFF7A7FE0028F9D0D2
:100BA0000148FFF7ABFF10BD0058004040000300B4
:100BB0002DE9F0410546884616461F4600BF4FF412
:100BC00000312848FFF706FF0028F8D10121254809
:100BD000FFF7E8FE00BF24492248FFF786FE002801
:100BE000F9D06906080E0021FFF798FF41461D481D
:100BF000FFF791FF00BF1D491A48FFF776FE002856
:100C0000F9D001211748FFF7D9FE00BF4FF400319A
:100C10001448FFF7DFFE0028F8D101211148FFF743
:100C2000C1FE00BF10490F48FFF75FFE0028F9D052
:100C30006906080E0121FFF771FF00240AE0701E0B
:100C4000A04203D1FFF7A0FF385502E0FFF788FF6D
:100C50003855641CB442F2DB01210248FFF7AEFEB6
:100C6000BDE8F08100580040010003008400070047
:100C700070B504460E46154600BF4FF400311848C3
:100C8000FFF7A8FE0028F8D101211548FFF78AFEDA
:100C900000BF14491248FFF728FE0028F9D061066A
:100CA000080E0021FFF73AFF31460D48FFF733FFEA
:100CB00000BF0D490A48FFF718FE0028F9D0294661
:100CC0000748FFF728FF00BF07490548FFF70DFE5B
:100CD0000028F9D001210248FFF770FE70BD000026
:100CE0000058004001000300840007001CB56B465B
:100CF000062203211E20FFF75BFF9DF80000000283
:100D000000B2124908809DF80100B1F900100843B3
:100D10000E4908809DF80200000200B20C490880CC
:100D20009DF80300B1F900100843094908809DF8B7
:100D30000400000200B2074908809DF80500B1F9DF
:100D400000100843034908801CBD0000000000207B
:100D5000040000200200002029B1064AD2690243A3
:100D6000044BDA6104E0034AD2698243014BDA6141
:100D7000704700000010024029B1064A9269024300
:100D8000044B9A6104E0034A92698243014B9A61E1
:100D9000704700000010024030B5002100220024FE
:100DA00000232D4D6D6805F00C0121B1042905D0FB
:100DB000082923D105E0294D056022E0274D056073
:100DC0001FE0254D6D6805F47012234D6D6805F424
:100DD0008034022505EB92421CB9214D5543056034
:100DE0000BE01D4D6D6805F400351DB11C4D5543DC
:100DF000056002E0194D5543056002E0174D05609E
:100E000000BF00BF144D6D6805F0F0010909154DD4
:100E10006B5C0568DD4045600F4D6D6805F4E06171
:100E2000090A104D6B5C4568DD4085600A4D6D68B0
:100E300005F46051C90A0B4D6B5C4568DD40C56027
:100E4000054D6D6805F44041890B074D6B5CC56825
:100E5000B5FBF3F5056130BD0010024000127A00C9
:100E600000093D000E0000201E00002010B500F01B
:100E700001F810BD0CB500200190009033480068C7
:100E800040F480303149086000BF3048006800F409
:100E9000003000900198401C0190009818B901980A
:100EA000B0F5A06FF1D12948006800F4003010B10E
:100EB0000120009001E0002000900098012843D11B
:100EC0002348006840F01000214908600846006887
:100ED00020F0030008600846006840F00200086047
:100EE0001A48406819494860084640684860084602
:100EF000406840F4806048600846406820F47C10F8
:100F000048600846406840F4E810486008460068B9
:100F100040F08070086000BF0C48006800F000706E
:100F20000028F9D00948406820F0030007494860CC
:100F30000846406840F00200486000BF034840682F
:100F400000F00C000828F9D10CBD00000010024090
:100F50000020024010B51348006840F0010011491C
:100F6000086008464068104908400E494860084635
:100F700000680E4908400B4908600846006820F4E4
:100F8000802008600846406820F4FE0048604FF466
:100F90001F008860FFF76AFF4FF000600449086097
:100FA00010BD0000001002400000FFF8FFFFF6FE39
:100FB00008ED00E000B585B0012144F20400FFF720
:100FC000DBFE4FF40070ADF8100018208DF8130010
:100FD00001208DF8120004A91648FFF7DCFB4FF43E
:100FE0008060ADF8100004208DF8130004A91148AA
:100FF000FFF7D1FB4FF4E13000900020ADF8040082
:10100000ADF80600ADF80800ADF80C000C20ADF806
:101010000A006946084800F04FF8012240F22551C5
:10102000054800F024F80121034800F007F805B056
:1010300000BD0000000801400038014021B1828954
:1010400042F40052828104E082894DF6FF731A4017
:101050008281704702460020B1F5007F00D100BFB9
:1010600013880B400BB1012000E000207047F0B561
:101070000346002400260025002040F66A17B942E6
:1010800000D100BF1846C1F3421401F01F0601272A
:1010900007FA06F5012C01D10C3004E0022C01D135
:1010A000103000E014301AB107682F43076002E0E7
:1010B0000768AF430760F0BD2DE9F04786B00546ED
:1010C0000E460024A24600BFA1460027B08900B109
:1010D00000BF2F462C8A4CF6FF700440F088044372
:1010E0002C82AC894EF6F3100440B0883189084355
:1010F000718908430443AC81AC8A4FF6FF40044039
:10110000B0890443AC8201A8FFF746FE1F4887421E
:1011100002D1DDF810A001E0DDF80CA0A88900F4F0
:10112000004040B10AEBCA0000EB0A1031684900E8
:10113000B0FBF1F807E00AEBCA0000EB0A103168D7
:101140008900B0FBF1F86420B8FBF0F0040120093D
:10115000642101FB1089A88900F4004040B13220CD
:1011600000EBC900B0FBF1F000F00700044308E019
:10117000322000EB09106421B0FBF1F000F00F0009
:1011800004432C8106B0BDE8F08700000038014020
:10119000C1F30802828070470FB4054B10B503A954
:1011A000044A029800F050F910BC5DF814FB0000EE
:1011B000191F000824000020490050EAC12018BF70
:1011C00004204A0D18BF40F0010040F2FF72B2EB5C
:1011D000515F08BF40F00200012808BF052070479A
:1011E0002DE9F0414F1E00EBC7010446D1E9000193
:1011F00015461E4637F006020DD02A463346FFF745
:1012000038F87F1E04EBC703D3E90023FEF78AFFFB
:1012100037F00602F1D1022F25D0042F13D0062F6C
:1012200018BFBDE8F0812A463346FFF722F8D4E91B
:101230000A23FEF777FF2A463346FFF71AF8D4E968
:101240000823FEF76FFF2A463346FFF712F8D4E96A
:101250000623FEF767FF2A463346FFF70AF8D4E96C
:101260000423FEF75FFF2A463346FFF702F8D4E96E
:101270000223FEF757FF2A463346FEF7FAFFD4E96A
:101280000023BDE8F041FEF74DBF0122FFF760BA31
:10129000FEF748BF024A00201107FFF759BA0000C5
:1012A00001FDFFFF02E008C8121F08C1002AFAD1A1
:1012B00070477047002001E001C1121F002AFBD1D6
:1012C000704700002DE9FF5F82B00021DDE90430A6
:1012D000020DDDF840B0034318D044F61050A2F2DE
:1012E000FF3242431514119801281FD0A5EB0B00C3
:1012F000401C5FEA000A4FF000064E4FDFF83891BD
:10130000B046504615D5CAF1000413E011980124E7
:101310004AA3012801D16FEA0B010298119AC0E992
:101320000031C0E9024206B0BDE8F09FCBF10000F9
:10133000DFE704460021404A491842EB0450CDE95A
:10134000001012E0E00707D032463B4640464946CF
:10135000FEF78FFF8046894632463B4610461946C7
:10136000FEF787FF06460F466410002CEAD1DDE940
:101370000401DDE90023BAF1000F06DAFEF779FF78
:1013800042464B46FEF775FF05E0FFF720F942465F
:101390004B46FFF71CF904460E460022284BFFF788
:1013A0009DF903D84FF0FF30014607E00022254B9E
:1013B00020463146FEF7B6FEFFF778F9102409E023
:1013C000002C0ADB0A220023FFF71BF8039B3032B4
:1013D0001A55641E50EA0102F2D1641C039AC4F14A
:1013E00011031444119A012A03D0012208430DD19C
:1013F0000AE0084304D000204FF0110B119072E76F
:10140000A3EB0B056D1E0DE05B4504DD4FF0000204
:1014100005F1010504E003DA4FF00002A5F1010532
:10142000002AECD002981199C0E90231C0E90045C8
:1014300079E70000000014400000F03F3000000099
:101440000000F0430000E03F2DE9FF4F95B09B46C0
:101450008946064600250FE2252877D10024274635
:10146000F84A0121059400E0044316F8013F203BAF
:1014700001FA03F01042F7D130782A2811D06FF02A
:101480002F033078A0F13002092A16D8059A44F0CB
:10149000020402EB820203EB42021044761C059028
:1014A000EFE759F8042B0592002A03DA504244F47E
:1014B0000054059044F00204761C30782E2816D192
:1014C00016F8010F44F004042A280DD06FF02F0203
:1014D0003078A0F13003092B09D807EB870302EB22
:1014E0004303C718761CF3E759F8047B761C307861
:1014F0006C280FD006DC4C2817D068280DD06A283D
:1015000014D104E0742810D07A280FD10DE044F4EF
:1015100000140AE044F4801401E044F440147278AA
:10152000824202D104F58014761C761C307866283D
:101530000BD013DC582877D009DC002875D045285B
:10154000F6D04628F4D047281AD19DE118E0632848
:1015500035D0642879D0652812D195E1702873D0F0
:1015600008DC6728F1D069286FD06E280DD06F286D
:1015700006D1B5E073282CD0752875D0782874D0A2
:101580005A46179990476D1C75E1C4F30250022822
:1015900009D003280DD0D9F8001004280DD00D6013
:1015A00009F1040967E1D9F80010EA17C1E900520E
:1015B000F6E7D9F800100D80F2E70D70F0E719F8A2
:1015C000041B8DF8001000208DF80100EA46012070
:1015D00003E059F804AB4FF0FF3061074FF0000112
:1015E00002D40DE008F101018846B9420FDA8045C6
:1015F000F8DB1AF808100029F4D108E008F101011D
:1016000088468142FADB1AF808100029F6D10598BD
:101610005B46A0EB080721463846179A00F094FA7B
:10162000284400EB080507E04DE029E10DE01AF839
:10163000010B5A4617999047B8F10108F7D25B465B
:1016400021463846179A13E142E00A220092C4F379
:1016500002524FF0000A022A08D059F804CB032A9C
:101660004FEAEC710AD00DE029E02AE009F1070108
:1016700021F00702F2E802C1914609E00FFA8CFC62
:101680004FEAEC71042A03D14FFA8CFC4FEAEC715B
:10169000002907DA0A460021DCF1000C61EB0201A7
:1016A0002D2202E0220504D52B228DF804200122F0
:1016B00003E0E20701D02022F7E7904659E00A2133
:1016C00002E010220DE010214FF0000A00910BE023
:1016D00010224FF0000A44F004040827009203E0AF
:1016E00008224FF0000A0092C4F30252022A05D0E9
:1016F00059F804CB0021032A08D009E009F10701B9
:1017000021F00702F2E802C1914605E01FFA8CFCC5
:10171000042A01D10CF0FF0C4FF00008220728D555
:10172000702806D0009B83F0100353EA0A0305D00B
:101730000EE040228DF80420012208E05CEA01025C
:1017400006D030228DF804208DF805000222904644
:10175000009B83F0080353EA0A030AD15CEA010202
:1017600001D1620705D530228DF804204FF0010821
:101770007F1E582804D034A003900EA802900DE0DC
:1017800036A0F9E753466046009AFEF73AFE8446D3
:101790000398825C0298401E029002705CEA01008D
:1017A000F0D1029806A9081A00F1200A600702D5B4
:1017B00024F4803400E00127574502DDA7EB0A003E
:1017C00000E0002000EB0A01009005984144401A17
:1017D0000590E00306D45B462146179A059800F071
:1017E000B3F90544002706E001A85A46C05D1799E1
:1017F00090476D1C7F1C4745F6DBE0030CD55B462C
:101800002146179A059800F09FF9054404E030201E
:101810005A46179990476D1C0099481E0090002960
:10182000F5DC08E0029802995A460078491C0291BA
:10183000179990476D1CBAF10001AAF1010AF1DC79
:1018400065E1000009280100303132333435363784
:1018500038396162636465660000000030313233FC
:10186000343536373839414243444546000000009C
:1018700000F058F90544761C307800287FF4ECAD70
:1018800019B02846BDE8F08F620700D4062709F199
:10189000070222F0070CFCE80223E14603F00048AF
:1018A0005FEA080C02D00FF2702C0DE05FEA045CD6
:1018B00002D50FF2682C07E05FEAC47C02D00FF279
:1018C000602C01E0AFF2700C4FF0FF3823F00043C2
:1018D000CDF850C065280CD006DC452809D0462834
:1018E0001DD047283DD13DE0662818D067287ED11D
:1018F00038E00021112F01DB112000E0781CCDE938
:10190000000106A90EA8FFF7DDFCDDE90F010E9A24
:1019100003910021009207F1010A04914DE04FF07C
:1019200000400097CDE9011006A90EA8FFF7CAFCF8
:10193000DDE90F0203920E9B11990022DDF80CA045
:101940000093049211B9791C00EB010AB7EB0A006D
:1019500004D4C0F1FF3007F1010A0490AAEB07009C
:10196000019044E0012F00DA01270021112F01DD51
:10197000112000E03846CDE9000106A90EA8FFF7C6
:10198000A1FCDDE90F010E9A039100210491009260
:10199000BA4621070CD40399514500DA8A46BAF1B8
:1019A000010F05DD009AAAF10101515C302908D030
:1019B000B84202DA10F1040F06DA0121CDE9011074
:1019C00015E0AAF10101E9E7002805DC04990144CA
:1019D0000491AAEB000102E0411C514500DD8A465A
:1019E0000499401A401C01904FF0004002902007DB
:1019F00004D40198504501DBCDF8048000208DF817
:101A00004F0002980DF14F07B0F1004F25D02B2069
:101A10000E9002984FF0020800280CDA4042029023
:101A20002D200E9007E00A210298FEF7D4FC3031F9
:101A3000029007F8011DB8F10001A8F10108F2DCDD
:101A400002980028EFD1791E0E980870307800F0C7
:101A5000200040F0450007F8020D12A8C01B00F15D
:101A600007081498007800B1012000EB0A010198E2
:101A700001EBE07105984144401A401E0590E003D7
:101A800006D45B462146179A059800F05DF8054498
:101A90001498007818B15A46179990476D1CE003C6
:101AA00024D55B462146179A059800F04DF8054469
:101AB0001CE00498002807DBDDE90301884203DD10
:101AC0000098405C179901E0179930205A469047DA
:101AD000049805F10105401C04900198401E0190F6
:101AE00004D12E205A46179990476D1CBAF1000177
:101AF000AAF1010ADDDC05E017F8010B5A46179937
:101B000090476D1CB8F10001A8F10108F4DC5B46B8
:101B10002146179A0598ABE62D0000002B00000027
:101B2000200000002DE9F041044600251E4617461E
:101B3000880404D405E039462020B0476D1C641E9B
:101B4000F9D52846BDE8F0812DE9F041044600258D
:101B50001E469046C80301D5302700E020278804A0
:101B600004D505E041463846B0476D1C641EF9D5E2
:101B70002846BDE8F08100002DE9F84F04460D46E7
:101B800021F0004000917349814211DC7249884282
:101B900001DC06D12CB120462946BDE8F84FFFF7FD
:101BA00074BB6E48002DCCBF6D496E49BDE8F88FFF
:101BB0006D49814211DD6D498142D8BF4FF0FF363A
:101BC0006DDD20462946FFF7F7FA042808BFFFF726
:101BD00061FB20462946BDE8F88F6549654F25F031
:101BE0000045814233DD6449814219DD00263246D9
:101BF0004FF0804320462946FEF794FA80468A46F5
:101C0000012220462946FEF7A3FD00223B46FEF7AF
:101C10002AFB42465346FEF7DAFC04460D463EE0F8
:101C200001260022BA463B4620462946FEF77AFAAC
:101C300080460F460022534620462946FEF713FBF6
:101C400042463B46FEF7C3FC04460D4627E04B499F
:101C500081421BDDDFF828A10226002253462046E0
:101C60002946FEF706FB00223B46FEF75BFA80465C
:101C70000F460022534620462946FEF7F4FA424614
:101C80003B46FEF7A4FC04460D4608E00326224628
:101C90002B4600203B49FEF79AFC04460D4622469F
:101CA0002B4610461946FEF7E4FA8B46824602465A
:101CB0000B46FEF7DEFA07460246334888460B46D7
:101CC00006217844FFF78CFA52465B46FEF7D1FABC
:101CD00082462E488B463A46434605217844FFF714
:101CE0007FFA3A464346FEF7C4FA02460B46002EF8
:101CF000504659460CDAFEF715FA22462B46FEF7F7
:101D0000B8FA01B022462B46BDE8F04FFEF7AEBA56
:101D1000FEF708FA22462B46FEF7ABFA1C4A7A4435
:101D200002EBC603D3E90023FEF79DFA22462B46B9
:101D3000FEF799FA174A7A4402EBC603D3E9002367
:101D4000FEF794FA009A002AB8BF81F00041BDE87E
:101D5000F88F0000000010440000F07F182D44545C
:101D6000FB21F93FFB21F9BF0000DC3F0000203ED2
:101D70000000F33F0000F03F0000E63F008003401A
:101D80000000F83F0000F0BF12040000D003000084
:101D90006E030000360300002DE9F04D9446CCF1AF
:101DA000000423F000464CEA0404524F46EAD4747F
:101DB0009A46884621F00042BC4206D8454240EA95
:101DC000050442EAD474BC4204D9BDE8F04D624631
:101DD000FFF75EBAAAF14055A5F17F6555EA0C04FC
:101DE0000BD0022404EAAA74434DDFF810E144EA60
:101DF000D87452EA000B04D00CE0BDE8F04DFFF7B8
:101E0000BBBE002C14BF012CBDE8F08D022C30D0DD
:101E1000032C32D056EA0C0B0AD0BE4220D1BA4273
:101E200009D126F0804622F080423346114617E061
:101E300000291ADB25E0DFF8C8B0FB44002C04BF02
:101E4000DBE90001BDE8F08D012C02BFDBE90001F8
:101E500081F00041BDE8F08D022C0AD0032C0CD09B
:101E6000BA4212D1B8F1000F0BDA23482549BDE878
:101E7000F08D28462449BDE8F08D28467146BDE81E
:101E8000F08D1D482149BDE8F08D921B12153C2AAA
:101E9000C4BF19481D490EDCBAF1000FBEBF12F1D4
:101EA0003C0F0020014606DB6246FEF790FB21F066
:101EB0000041FFF761FE002C08BFBDE8F08D012C4A
:101EC00004BF81F00041BDE8F08D114A114B022C96
:101ED00007D0FEF7C8F92A46BDE8F04D0A4BFEF7D9
:101EE000C2B9FEF7C0F92A46BDE8F04D064BFEF731
:101EF000BDB900000000F07F182D4454FB2109C03B
:101F0000CA020000FB21F9BFFB210940FB21F93F78
:101F1000075C143326A6A13C70B504460D46E1B219
:101F20000548FFF735F900BF40210348FFF792F855
:101F30000128F9D1204670BD0038014008B5FFF7EF
:101F400039F82BA0FFF728F9FEF7B0FC4FF47A60C0
:101F5000FEF715FC4BE0FEF7C9FE2C48B0F9003047
:101F60002B48B0F900202B48B0F900102AA0FFF749
:101F700013F92848B0F90000FEF7EDF906460F46C0
:101F80002348B0F90000FEF7E6F9804632463B46AA
:101F9000FFF702FF0446FEF702FA82465046FEF7BC
:101FA000EBF90446254A264BFEF763F90646FEF791
:101FB000F6F982465046FEF7DFF904464FF0333219
:101FC000204BFEF750F90646FEF7E9F982465046E7
:101FD000FEF7D2F90446BA2022460B4600901AA01A
:101FE000FFF7DAF841F27070FEF7C9FB00BFB2E705
:101FF000202050525545424120444520484D43350C
:102000003838334C20200D0A000000000400002066
:1020100002000020000000202056616C6F72657382
:1020200020646520582C592C5A203D2025336420EB
:102030002025336420202533640A000026CF030DB9
:10204000DCA54C403333D33F2020202020416E6755
:10205000756C6F20726573706563746F204E6F725C
:1020600074653A2025322E66202563200D0A000073
:102070004FBB610567ACDD3F182D4454FB21E93FA0
:102080009BF681D20B73EF3F182D4454FB21F93F8F
:10209000E2652F227F2B7A3C075C143326A6813C15
:1020A000BDCBF07A8807703C075C143326A6913CC0
:1020B000C4EB98999999C9BF711623FEC671BCBF2C
:1020C0006D9A74AFF2B0B3BF9AFDDE522DDEADBF94
:1020D0002F6C6A2C44B4A2BF0D5555555555D53FAC
:1020E000FF8300922449C23F6E204CC5CD45B73FC7
:1020F000513DD0A0660DB13FEB0D76244B7BA93F3F
:1021000011DA22E33AAD903F000000000000000029
:10211000302100080000002028000000A412000860
:10212000582100082800002000040000B412000814
:10213000000000000000000000000000000000009F
:102140000000010203040102030406070809020457
:08215000060800000000000079
:04000005080000ED02
:00000001FF
