:020000040800F2
:100000002004002001010008090100080B0100087C
:100010000D0100080F010008110100080000000098
:1000200000000000000000000000000013010008B4
:100030001501000800000000170100081901000860
:100040001B0100081B0100081B0100081B01000820
:100050001B0100081B0100081B0100081B01000810
:100060001B0100081B0100081B0100081B01000800
:100070001B0100081B0100081B0100081B010008F0
:100080001B0100081B0100081B0100081B010008E0
:100090001B0100081B0100081B0100089D0100084E
:1000A0001B0100081B0100081B0100081B010008C0
:1000B0001B0100081B0100081B0100081B010008B0
:1000C0001B0100081B0100081B0100081B010008A0
:1000D0001B0100081B0100081B0100081B01000890
:1000E0001B0100081B0100081B010008DFF80CD0F1
:1000F00000F02EF800480047A50C0008200400205E
:100100000648804706480047FEE7FEE7FEE7FEE7B1
:10011000FEE7FEE7FEE7FEE7FEE7FEE7FD08000874
:10012000ED00000830B50B460146002020220124D6
:1001300009E021FA02F59D4205D303FA02F5491BB5
:1001400004FA02F52844151EA2F10102F1DC30BDCB
:10015000064C074D06E0E06840F0010394E8070014
:1001600098471034AC42F6D3FFF7C4FFD00E000816
:10017000F00E00081CB50121042000F0A9FA20208F
:10018000009000208DF804000C208DF8050001205F
:100190008DF80600684600F04DF81CBD10B5202013
:1001A00000F034F898B1202000F02AF800F02EF981
:1001B000074800F089F807A000F098FC002000E054
:1001C000401CB0F1007FFBDB0B480C49086010BD00
:1001D00000FC00080A0D20204D454D4F524941209A
:1001E000464C41534820424F525241444120212124
:1001F0002121200D0A0000000400FA050CED00E0AA
:1002000001490860704700001404014001460020C5
:100210000022074B1B6803EA0102054B14331B68DD
:100220000B4013B10AB1012000E00020704700002C
:1002300000040140002123498279002A3AD00A466D
:10024000126803689A430B461A600A1D1268036815
:100250009A430B1D1A60027911440A6803681A4315
:100260000A60184A0832126803689A43154B08332B
:100270001A601A1D126803689A43124B0C331A60F5
:100280004279102A0ED11A1F126803681A430D4BC7
:1002900008331A601A1D126803681A43094B0C339D
:1002A0001A600DE00749427911440A6803681A434D
:1002B0000A6005E0027911440A6803689A430A60FB
:1002C000704700000004014030B5044604254FF497
:1002D000302000F0A7F80546042D17D10C4800691E
:1002E00040F002000A49086108464461006940F094
:1002F000400008614FF4302000F094F805460448AF
:10030000006941F6FD71084001490861284630BD89
:100310000020024004200B49C96801F0010109B125
:1003200001200EE00749C96801F0040109B102206B
:1003300007E00449C96801F0100109B1032000E099
:10034000042070470020024010B5102000F00EF885
:10035000022000F04FF810BD0348006940F0800013
:100360000149086170470000002002400549096802
:1003700021F01001034A1160114609680143116020
:10038000704700000020024078B506460C46042560
:1003900000200090E80200F045F80546042D24D125
:1003A0001348006940F00100114908613480E802F7
:1003B00000F038F80546042D10D1B01C0090200C38
:1003C00000990880E80200F02DF805460848006909
:1003D00041F6FE7108400649086106E004480069DC
:1003E00041F6FE71084002490861284678BD0000C8
:1003F0000020024001460020034A106800F0380047
:100400000843106070470000002002400248034982
:100410004860034848607047230167450020024058
:10042000AB89EFCD00B502460423FFF773FF034607
:1004300003E0FFF76FFF0346521E012B01D1002A94
:10044000F7D102B90523184600BD000008B5012107
:10045000142000F03DF94FF40050ADF800001020DA
:100460008DF8030003208DF8020069460A4800F069
:1004700017F84FF40051084800F09DF82020ADF81F
:10048000000048208DF8030002208DF80200694624
:10049000024800F005F808BD0010014000080140C6
:1004A0002DE9F0410246002500260020002300240B
:1004B000002791F803C00CF00F0591F803C00CF071
:1004C000100CBCF1000F03D091F802C04CEA0505F6
:1004D00091F800C0BCF1000F31D0146800202BE06F
:1004E0004FF0010C0CFA00F3B1F800C00CEA03065F
:1004F0009E4220D183004FF00F0C0CFA03F7BC434F
:1005000005FA03FC4CEA040491F803C0BCF1280F7F
:1005100006D14FF0010C0CFA00FCC2F814C00AE03E
:1005200091F803C0BCF1480F05D14FF0010C0CFA53
:1005300000FCC2F810C0401C0828D1D31460B1F8E8
:1005400000C0BCF1FF0F34DD546800202EE000F144
:10055000080C4FF0010808FA0CF3B1F800C00CEADF
:1005600003069E4221D183004FF00F0C0CFA03F7D3
:10057000BC4305FA03FC4CEA040491F803C0BCF147
:10058000280F05D100F1080C08FA0CF8C2F8148005
:1005900091F803C0BCF1480F07D100F1080C4FF0EF
:1005A000010808FA0CF8C2F81080401C0828CED3C5
:1005B0005460BDE8F08141617047000070B5FFF7FD
:1005C00025FF0A48FFF780FE094C084D002607E08A
:1005D00028462168FFF7D8FE241D2D1D701C86B209
:1005E000022EF5D3FFF7B8FE70BD000000FC000836
:1005F00000000020064A0748002105E01368036058
:10060000121D001D4B1C99B20229F7D37047000040
:1006100000FC00080000002008B54FF4C06000F0A6
:100620004DF84FF4C06000F049F817208DF8000035
:1006300001208DF8010000208DF8020001208DF8C6
:100640000300684600F002F808BD000070B5002104
:1006500000230F22C47804B3154C246804F4E0642A
:10066000C4F5E064210AC1F10403CA40447804FAE5
:1006700003F184781440214309010E4C0678A155FA
:10068000047804F01F050124AC4005786D11AD001D
:1006900005F1E025C5F8004109E0047804F01F05E4
:1006A0000124AC40044D0678761145F8264070BD13
:1006B0000CED00E000E400E080E100E002490143CD
:1006C000024A1160704700000000FA050CED00E0DE
:1006D00029B1064A92690243044B9A6104E0034A35
:1006E00092698243014B9A617047000000100240FA
:1006F0000348406A40F0807001494862704700003A
:100700000010024030B500210022002400232D4DAE
:100710006D6805F00C0121B1042905D0082923D109
:1007200005E0294D056022E0274D05601FE0254DBD
:100730006D6805F47012234D6D6805F48034022550
:1007400005EB92421CB9214D554305600BE01D4D50
:100750006D6805F400351DB11C4D5543056002E080
:10076000194D5543056002E0174D056000BF00BFFD
:10077000144D6D6805F0F0010909154D6B5C0568B5
:10078000DD4045600F4D6D6805F4E061090A104DCC
:100790006B5C4568DD4085600A4D6D6805F460510D
:1007A000C90A0B4D6B5C4568DD40C560054D6D6841
:1007B00005F44041890B074D6B5CC568B5FBF3F54B
:1007C000056130BD0010024000127A0000093D00B2
:1007D000080000201800002010B501460022002368
:1007E00000204A11012A02D1094C236806E0022A9E
:1007F00002D1074C236A01E0054C636A01F01F0235
:10080000012494401C400CB1012000E0002010BDE8
:100810000010024010B500F001F810BD0CB500202A
:10082000019000903348006840F4803031490860FE
:1008300000BF3048006800F4003000900198401C70
:100840000190009818B90198B0F5A06FF1D129482E
:10085000006800F4003010B10120009001E0002099
:1008600000900098012843D12348006840F0100010
:10087000214908600846006820F003000860084627
:10088000006840F0020008601A4840681949486052
:100890000846406848600846406840F48060486008
:1008A0000846406820F47C1048600846406840F4E0
:1008B000E81048600846006840F08070086000BF9B
:1008C0000C48006800F000700028F9D00948406822
:1008D00020F00300074948600846406840F00200E5
:1008E000486000BF0348406800F00C000828F9D1B8
:1008F0000CBD0000001002400020024010B513485B
:10090000006840F00100114908600846406810493D
:1009100008400E494860084600680E4908400B49E7
:1009200008600846006820F4802008600846406897
:1009300020F4FE0048604FF41F008860FFF76AFF54
:100940004FF000600449086010BD00000010024034
:100950000000FFF8FFFFF6FE08ED00E000B585B0EF
:10096000012144F20400FFF7B3FE4FF40070ADF82C
:10097000100018208DF8130003208DF8120004A930
:100980001348FFF78DFD4FF48060ADF81000042090
:100990008DF8130004A90E48FFF782FD4FF4E130F3
:1009A00000900020ADF80400ADF80600ADF8080096
:1009B000ADF80C000C20ADF80A006946054800F0BF
:1009C00025F80121034800F007F805B000BD00003C
:1009D000000801400038014021B1828942F40052F0
:1009E000828104E082894DF6FF731A40828170474C
:1009F00002460020B1F5007F00D100BF13880B40F4
:100A00000BB1012000E00020704700002DE9F04705
:100A100086B005460E460024A24600BFA146002728
:100A2000B08900B100BF2F462C8A4CF6FF700440FD
:100A3000F08804432C82AC894EF6F3100440B08851
:100A400031890843718908430443AC81AC8A4FF66D
:100A5000FF400440B0890443AC8201A8FFF752FE76
:100A60001F48874202D1DDF810A001E0DDF80CA09C
:100A7000A88900F4004040B10AEBCA0000EB0A105C
:100A800031684900B0FBF1F807E00AEBCA0000EB5F
:100A90000A1031688900B0FBF1F86420B8FBF0F06F
:100AA00004012009642101FB1089A88900F4004099
:100AB00040B1322000EBC900B0FBF1F000F00700BC
:100AC000044308E0322000EB09106421B0FBF1F090
:100AD00000F00F0004432C8106B0BDE8F087000051
:100AE00000380140C1F30802828070470FB4054B03
:100AF00010B503A9044A029800F018F810BC5DF87C
:100B000014FB0000810C00081C00002002E008C853
:100B1000121F08C1002AFAD170477047002001E077
:100B200001C1121F002AFBD1704700002DE9FF4FC1
:100B300089B09B460446002506E025280BD05A467E
:100B40000B999047641C6D1C20780028F5D10DB0DE
:100B50002846BDE8F08F0027B8460122474900E04B
:100B6000074314F8013F203B02FA03F00842F7D193
:100B700020782E2819D114F8010F47F004072A28ED
:100B80000ED06FF02F022078A0F1300109290CD887
:100B900008EB880102EB410100EB0108641CF2E75D
:100BA0000A98641C50F8048B0A9020780028CED054
:100BB000642808D0692806D075281ED05A460B999B
:100BC00090476D1C58E00A994FF00A0901C90A9133
:100BD000002802DA40422D2102E0390504D52B21FC
:100BE0008DF82010012103E0F90704D02021F7E758
:100BF0008A4608AE0DE00021FAE70A994FF00A098B
:100C000001C90A91F7E74946FFF78CFA303106F837
:100C1000011D0028F7D1ADEB060000F1200978078F
:100C200001D44FF00108C84502DDA8EB090000E03F
:100C300000208046002706E008A85A46C05D0B99B0
:100C400090476D1C7F1C5745F6DB04E030205A4668
:100C50000B9990476D1CB8F10001A8F10108F5DC73
:100C600005E016F8010B5A460B9990476D1CB9F137
:100C70000001A9F10109F4DC641C65E70928010001
:100C800070B504460D46E1B20548FFF72BFF00BFE3
:100C900040210348FFF7ACFE0128F9D1204670BD82
:100CA0000038014008B5FFF759FEFFF7CFFBFFF70B
:100CB000B3FCFFF75FFA28A0FFF718FF35A0FFF796
:100CC00015FF43A0FFF712FFFFF73EFB7C20FFF765
:100CD00083FD18B14DA0FFF709FF0EE07B20FFF761
:100CE0007BFD18B155A0FFF701FF06E07A20FFF762
:100CF00073FD10B15DA0FFF7F9FEFFF7F9FCFFF7F8
:100D000079FC65480078401C6349087008464078C3
:100D1000401C487008464088401C4880084640688F
:100D2000401C4860FFF74AFC5B48406800905A4806
:100D300043884278017859A0FFF7D8FE0BE063485A
:100D4000C06880F400506149C860002000E0401C89
:100D5000B0F5801FFBDBF2E70D0A203D3D3D3D3D38
:100D60003D3D3D3D3D3D3D3D3D3D3D3D3D3D3D3DB3
:100D70003D3D3D3D3D3D3D3D3D3D3D3D3D3D3D3DA3
:100D80003D3D3D3D3D3D3D3D3D3D3D3D3D3D3D3D93
:100D90000D0A0000202050524F4752414D4120453E
:100DA0004A454D504C4F204445205554494C495AD2
:100DB0004143494F4E204445204C41204D454D4F25
:100DC00052494120464C41534820200D0A00000062
:100DD000203D3D3D3D3D3D3D3D3D3D3D3D3D3D3D60
:100DE0003D3D3D3D3D3D3D3D3D3D3D3D3D3D3D3D33
:100DF0003D3D3D3D3D3D3D3D3D3D3D3D3D3D3D3D23
:100E00003D3D3D3D3D3D0D0A000000000D0A202006
:100E1000556E205265696E6963696F20706F72202C
:100E2000736F667477617265206F6375727269643F
:100E30006F2E2E2E2E0D0A0D0A0000000D0A202006
:100E40005265696E6963696F20706F7220506F77A9
:100E50006572204F6E2F4F666620646574656374FB
:100E600061646F2E2E2E2E0D0A0D0A000D0A202011
:100E7000426F746F6E2052657365742070756C7369
:100E800061646F2064657465637461646F2E2E2ED7
:100E90002E0D0A0D0A0000000000002020204461F1
:100EA000746F73206C6569646F73205B315D2025FE
:100EB00064205B325D202564205B335D2025642047
:100EC0005B345D202564200A0D0000000010014005
:100ED000F00E000800000020200000000C0B0008AD
:100EE000100F000820000020000400001C0B000868
:100EF00000000000000000000000000001020304E8
:100F000001020304060708090204060800000000A5
:04000005080000ED02
:00000001FF
