:020000040800F2
:100000001004002001010008090100080B0100088C
:100010000D0100080F010008110100080000000098
:1000200000000000000000000000000013010008B4
:100030001501000800000000170100081901000860
:100040001B0100081B0100081B0100081B01000820
:100050001B0100081B0100081B0100081B01000810
:100060001B0100081B0100081B0100081B01000800
:100070001B0100081B0100081B0100081B010008F0
:100080001B0100081B0100081B0100081B010008E0
:100090001B0100081B0100081B0100081B010008D0
:1000A0001B0100081B0100081B0100081B010008C0
:1000B0001B0100081B010008E50400081B010008E3
:1000C0001B0100081B0100081B0100081B010008A0
:1000D0001B0100081B0100081B0100081B01000890
:1000E0001B0100081B0100081B010008DFF80CD0F1
:1000F00000F018F80048004791070008100400209D
:100100000648804706480047FEE7FEE7FEE7FEE7B1
:10011000FEE7FEE7FEE7FEE7FEE7FEE785040008F0
:10012000ED000008064C074D06E0E06840F00103D2
:1001300094E8070098471034AC42F6D3FFF7DAFF93
:1001400094080008B40800082DE9F0410246002593
:100150000026002000230024002791F803C00CF0A3
:100160000F0591F803C00CF0100CBCF1000F03D088
:1001700091F802C04CEA050591F800C0BCF1000FEF
:1001800031D0146800202BE04FF0010C0CFA00F382
:10019000B1F800C00CEA03069E4220D183004FF064
:1001A0000F0C0CFA03F7BC4305FA03FC4CEA0404F9
:1001B00091F803C0BCF1280F06D14FF0010C0CFAE6
:1001C00000FCC2F814C00AE091F803C0BCF1480F6B
:1001D00005D14FF0010C0CFA00FCC2F810C0401C15
:1001E0000828D1D31460B1F800C0BCF1FF0F34DD92
:1001F000546800202EE000F1080C4FF0010808FAC6
:100200000CF3B1F800C00CEA03069E4221D1830032
:100210004FF00F0C0CFA03F7BC4305FA03FC4CEA51
:10022000040491F803C0BCF1280F05D100F1080CBB
:1002300008FA0CF8C2F8148091F803C0BCF1480F1A
:1002400007D100F1080C4FF0010808FA0CF8C2F8C9
:100250001080401C0828CED35460BDE8F0814FF6D2
:10026000FF710180022181700421C170704700007C
:1002700029B1064AD2690243044BDA6104E0034A19
:10028000D2698243014BDA617047000000100240DE
:1002900029B1064A92690243044B9A6104E0034A79
:1002A00092698243014B9A6170470000001002403E
:1002B00000B589B001210820FFF7EAFF4020ADF822
:1002C000200018208DF8230002208DF8220008A9B4
:1002D0002248FFF739FF08A8FFF7C1FF01210420DA
:1002E000FFF7C6FF05A800F03BFA4820ADF8140060
:1002F0004FF6FF70ADF818000020ADF81A00ADF809
:10030000160005A9164800F0D9F901A800F0CAF9AD
:100310000020ADF80A006020ADF804000120ADF81F
:1003200006000020ADF80C0001A90D4800F06EF9A0
:10033000012210210A4800F05FF91E20002809DB85
:1003400000F01F02012191404209920002F1E022D7
:10035000C2F8001100BF09B000BD0000000C014050
:100360000008004010B500F001F810BD0CB50020E9
:10037000019000903348006840F4803031490860B3
:1003800000BF3048006800F4003000900198401C25
:100390000190009818B90198B0F5A06FF1D12948E3
:1003A000006800F4003010B10120009001E000204E
:1003B00000900098012843D12348006840F01000C5
:1003C000214908600846006820F0030008600846DC
:1003D000006840F0020008601A4840681949486007
:1003E0000846406848600846406840F480604860BD
:1003F0000846406820F47C1048600846406840F495
:10040000E81048600846006840F08070086000BF4F
:100410000C48006800F000700028F9D009484068D6
:1004200020F00300074948600846406840F0020099
:10043000486000BF0348406800F00C000828F9D16C
:100440000CBD0000001002400020024010B500204A
:1004500009490860012009490870094A064B1B68D0
:1004600002EB83025188064A034B1B6832F82300D3
:1004700000F094F910BD00000000002004000020EE
:100480001408000810B51348006840F00100114935
:10049000086008464068104908400E494860084610
:1004A00000680E4908400B4908600846006820F4BF
:1004B000802008600846406820F4FE0048604FF441
:1004C0001F008860FFF74EFF4FF00060044908608E
:1004D00010BD0000001002400000FFF8FFFFF6FE14
:1004E00008ED00E010B51021274800F074F800284E
:1004F00048D01021244800F056F824480068401CD9
:1005000022490860084600682149096888422EDDB2
:100510002048007820B900211B4800F047F826E069
:100520001D4800681F281BDA17483430008890B92E
:1005300019480068401C18490860184A0B461B6897
:1005400002EB83025188154A134B1B6832F82300D3
:1005500000F024F90BE01E21002000F01FF906E056
:1005600000200C4908700021074800F01FF84FF4E4
:100570008051054800F026F820B14FF48051024820
:1005800000F00EF810BD0000000800400C00002034
:1005900008000020040000200000002014080008CB
:1005A000CA4302827047CA430282704721B102885F
:1005B00042F00102028004E002884FF6FE731A4006
:1005C0000280704702460020138A0B400BB10120C5
:1005D00000E00020704730B50246002000230024D0
:1005E000158A05EA0103958905EA010413B10CB1E6
:1005F000012000E0002030BD1AB183890B438381C4
:1006000002E083898B4383817047000070B500242A
:1006100000220023058C4FF6FE7635400584028CBF
:100620008388048B4FF68F752C40B51E2C400D88A7
:100630002C43751E2A400D892A434D882A43144DA8
:10064000A8420BD0134DA84208D0134DA84205D0A4
:10065000124DA84202D0124DA84213D14FF6F775A1
:100660002A404D892A434FF6FB752A408D882A433C
:100670004FF6FF652B404FF6FF552B408D892B43DE
:10068000CD892B4383800483CD888586028470BD09
:10069000002C014000340140004001400044014072
:1006A000004801400021018041808180C18001819A
:1006B00041818181C1817047818470470022028815
:1006C0001D4B98420ED01D4B98420BD0B0F1804F7D
:1006D00008D01B4B984205D01A4B984202D01A4BB7
:1006E000984204D14FF68F731A404B881A43174B28
:1006F000984207D0164B984204D04FF6FF431A4059
:10070000CB881A4302808B8883850B8803850A4B2C
:1007100098420BD0094B984208D00E4B984205D016
:100720000D4B984202D00D4B984201D10B7A0386B3
:100730000123838270470000002C014000340140F7
:100740000004004000080040000C00400010004081
:1007500000140040004001400044014000480140B6
:100760004FF6FF71818000210180C18041800172BC
:10077000704702E008C8121F08C1002AFAD170476A
:100780007047002001E001C1121F002AFBD1704711
:10079000FFF78EFDFFF75AFE00BFFEE770B5044677
:1007A0000D46002C0CDD174890FBF4F0164908802C
:1007B000088800EBD0714910134A0832118007E015
:1007C0004FF47A701049088000200F4908310880E2
:1007D00000210D482C38FFF76FFF0B4800880949AE
:1007E00091FBF0F068434FF47A7190FBF1F0074908
:1007F0000860002006490860012103482C38FFF7F3
:10080000D5FE70BD40420F002C08004008000020BB
:100810000C000020EE01F401EF00D0078801FA007F
:100820007201FA00EF00E803EE01F401B801E204FE
:100830007201E803EE01F401EF00E8038801FA0019
:100840007201FA002501E803EF00F401EE01E8036C
:100850000000E803EE01F401EF00E8038801FA006C
:100860007201FA00EF00E803EE01F4012501E8034C
:100870001501F4010A02E803B801F4010A02E803D1
:10088000EE01FA00D201FA00EE01E8038801F4015A
:10089000EF00E803B408000800000020100000008A
:1008A00072070008C40800081000002000040000BF
:1008B00082070008000000000000000000000000A7
:0408C0000000000034
:04000005080000ED02
:00000001FF
