:020000040800F2
:100000003005002001010008090100080B0100086B
:100010000D0100080F010008110100080000000098
:1000200000000000000000000000000013010008B4
:100030001501000800000000170100081901000860
:100040001B0100081B0100081B0100081B01000820
:100050001B0100081B0100081B0100081B01000810
:100060001B0100081B0100081B0100081B01000800
:100070001B0100081B0100081B0100081B010008F0
:100080001B0100081B0100081B0100081B010008E0
:100090001B0100081B0100081B0100081B010008D0
:1000A0001B0100081B0100081B0100081B010008C0
:1000B0001B0100081B0100081B0100081B010008B0
:1000C0001B0100081B0100081B0100081B010008A0
:1000D0001B0100081B0100081B0100081B01000890
:1000E0001B0100081B0100081B010008DFF80CD0F1
:1000F00000F018F8004800474D06000830050020C1
:100100000648804706480047FEE7FEE7FEE7FEE7B1
:10011000FEE7FEE7FEE7FEE7FEE7FEE7B5050008BF
:10012000ED000008064C074D06E0E06840F00103D2
:1001300094E8070098471034AC42F6D3FFF7DAFF93
:1001400098060008B806000870B58C1810F8015B16
:1001500015F0070301D110F8013B2A1106D110F860
:10016000012B03E010F8016B01F8016B5B1EF9D164
:100170002B0705D40023521E0DD401F8013BFAE7EA
:1001800010F8013BCB1A921C03E013F8015B01F855
:10019000015B521EF9D5A142D8D3002070BD2DE9D4
:1001A000F0410246002500260020002300240027FD
:1001B00091F803C00CF00F0591F803C00CF0100C7F
:1001C000BCF1000F03D091F802C04CEA050591F88C
:1001D00000C0BCF1000F31D0146800202BE04FF0BC
:1001E000010C0CFA00F3B1F800C00CEA03069E42C1
:1001F00020D183004FF00F0C0CFA03F7BC4305FA33
:1002000003FC4CEA040491F803C0BCF1280F06D1AA
:100210004FF0010C0CFA00FCC2F814C00AE091F88F
:1002200003C0BCF1480F05D14FF0010C0CFA00FCE3
:10023000C2F810C0401C0828D1D31460B1F800C027
:10024000BCF1FF0F34DD546800202EE000F1080CF3
:100250004FF0010808FA0CF3B1F800C00CEA0306ED
:100260009E4221D183004FF00F0C0CFA03F7BC43E0
:1002700005FA03FC4CEA040491F803C0BCF1280F12
:1002800005D100F1080C08FA0CF8C2F8148091F8B6
:1002900003C0BCF1480F07D100F1080C4FF0010872
:1002A00008FA0CF8C2F81080401C0828CED354601D
:1002B000BDE8F081416170470161704710B50021D0
:1002C000092000F0E5F803210A2000F0E1F80721F9
:1002D0000B2000F0DDF801210C2000F0D9F80021FE
:1002E0000F2000F0D5F810BD29B1064A126902436B
:1002F000044B1A6104E0034A12698243014B1A61FC
:10030000704700000010024029B1064A926902437A
:10031000044B9A6104E0034A92698243014B9A615B
:10032000704700000010024029B1064AD26802431B
:10033000044BDA6004E0034AD2688243014BDA607E
:10034000704700000010024000B587B0012141F263
:100350000400FFF7D9FF1020ADF8040003208DF84A
:10036000060010208DF8070001A91B48FFF717FFB2
:10037000E020ADF8040018208DF8070001A9164808
:10038000FFF70DFF0020ADF808002820ADF814009D
:100390000020ADF80C004FF48270ADF80A00002088
:1003A000ADF816000220ADF80E000120ADF81000E7
:1003B0004002ADF812000720ADF81800074800F021
:1003C0001BF802A9054800F045F80121034800F098
:1003D00007F807B000BD00000008014000300140F0
:1003E00021B1028842F04002028004E002884FF608
:1003F000BF731A400280704710B50446114884420A
:1004000008D101218014FFF78FFF0021A014FFF70E
:100410008BFF16E00C48844208D101210014FFF73D
:1004200063FF00212014FFF75FFF0AE007488442C2
:1004300007D10121C013FFF757FF0021E013FFF799
:1004400053FF10BD0030014000380040003C004028
:100450008181704710B50022028802F441520B8856
:100460004C8823438C882343CC8823430C89234323
:100470004C8923438C892343CC8923431A4302802C
:10048000838B4FF2FF74234083830B8A038210BD5A
:1004900070B504460D4610210A48FFF70BFF2146B0
:1004A0000948FFF7D5FF0A2000F0C3F8294606489F
:1004B000FFF7CEFF0A2000F0BCF810210148FFF73B
:1004C000FBFE70BD000801400030014010B500F097
:1004D00001F810BD0CB50020019000903348006871
:1004E00040F480303149086000BF3048006800F4B3
:1004F000003000900198401C0190009818B90198B4
:10050000B0F5A06FF1D12948006800F4003010B1B7
:100510000120009001E0002000900098012843D1C4
:100520002348006840F01000214908600846006830
:1005300020F0030008600846006840F002000860F0
:100540001A484068194948600846406848600846AB
:10055000406840F4806048600846406820F47C10A1
:1005600048600846406840F4E81048600846006863
:1005700040F08070086000BF0C48006800F0007018
:100580000028F9D00948406820F003000749486076
:100590000846406840F00200486000BF03484068D9
:1005A00000F00C000828F9D10CBD0000001002403A
:1005B0000020024010B51348006840F001001149C6
:1005C000086008464068104908400E4948600846DF
:1005D00000680E4908400B4908600846006820F48E
:1005E000802008600846406820F4FE0048604FF410
:1005F0001F008860FFF76AFF4FF000600449086041
:1006000010BD0000001002400000FFF8FFFFF6FEE2
:1006100008ED00E002E008C8121F08C1002AFAD164
:1006200070477047002001E001C1121F002AFBD172
:100630007047002107E0002200E0521C42F6FF2331
:100640009A42FAD3491C8142F5D37047FFF77CFEEA
:100650004FF44870FFF7EDFFFFF730FEC820FFF7BB
:10066000E8FF15E0002511E0012408E0094A02EB4B
:10067000C503621E995CE0B2FFF70AFF641C092CF7
:10068000F4DB4FF4FA70FFF7D4FF6D1C262DEBDB83
:10069000E8E7000000000020B80600080000002085
:1006A00030010000480100089007000830010020D8
:1006B00000040000240600083B3C42012E3C1018B8
:1006C000141001280C7E02027E4040407E3E020251
:1006D0000311101008182848FE0808083C20203C88
:1006E00004043C29081424243C1C3E2204161B0844
:1006F00008092A220329041A02312B08140F3C226C
:10070000223C171930194D1440403C3A7C67127C4A
:100710001C7C4040035B407C083A4020180844445D
:100720003C4444447C043B447C863C107C3C5E134B
:1007300048303808242830203028244719341E81B6
:10074000C3A599810111174262524A464269C019F4
:10075000701A229C2B201C7D3C26221D1014242262
:10076000211C1E20209919B139514A082F4B221CF7
:10077000081324181A4901232A1C1C412214BC2ADC
:10078000410739D80008107F02040810207F0000BC
:04000005080000ED02
:00000001FF
